:020000022000DC
:10700000A09A002025CA0200A3A80400F9C9020022
:10701000F9C90200F9C90200F9C902000000000024
:1070200000000000000000000000000049CB02004A
:10703000F9C9020000000000B5CA0200F9C9020047
:1070400069CD02004DE6030069CD020069CD020062
:1070500069CD020069CD020069CD020069CD020050
:1070600069CD020069CD020069CD020069CD020040
:1070700069CD020069CD020069CD020069CD020030
:1070800069CD020069CD020069CD020069CD020020
:1070900069CD020069CD020069CD020069CD020010
:1070A00069CD020069CD020069CD020069CD020000
:1070B00069CD020069CD020069CD020069CD0200F0
:1070C00069CD020069CD020069CD020069CD0200E0
:1070D00069CD020069CD020069CD020069CD0200D0
:1070E00069CD020069CD020069CD020069CD0200C0
:1070F00069CD020069CD020069CD020069CD0200B0
:1071000053B94AB9002908BF00281CBF4FF0FF310E
:107110004FF0FF3000F00CB8ADF1080C6DE904CE73
:1071200000F008F8DDF804E0DDE9022304B0704760
:10713000704700BF2DE9F04786468C460846089EFA
:10714000154674461946002B40F0C2808542B2FABB
:1071500082F245D94AB1C2F1200300FA02FC2EFAAC
:1071600003F3954043EA0C0C94404FEA154EA8B245
:10717000BCFBFEF8230C0EFB18CC08FB00F943EA1D
:107180000C43994528D9EB1808F1FF3704D29945EB
:1071900002D9A8F102072B44A3EB0903A4B2B3FB65
:1071A000FEFC0EFB1C330CFB00F044EA0344A0423F
:1071B00014D92C190CF1FF3304D2A04202D9ACF13E
:1071C00002032C44241A43EA07401EB1D440002392
:1071D00034607360BDE8F0874746DDE76346F1E75A
:1071E00092BB431B01214FEA154EAFB2B3FBFEFC2D
:1071F000200C0EFB1C330CFB07F840EA03439845B8
:1072000062D9EB180CF1FF3004D2984502D9ACF1E9
:1072100002002B44A3EB0803A4B2B3FBFEFC0EFB5D
:107220001C330CFB07F744EA0344A7424ED92C1940
:107230000CF1FF3304D2A74202D9ACF102032C4473
:10724000E41B43EA0040C0E7C2F1200320FA03F147
:10725000954090402EFA03F303434FEA154EAFB228
:10726000B1FBFEFC0EFB1C10190C0CFB07F841EAED
:107270000041884504FA02F422D969180CF1FF3064
:1072800004D2884502D9ACF102002944A1EB0801DF
:107290009BB2B1FBFEFC0EFB1C110CFB07F743EA93
:1072A00001439F420ED9EB180CF1FF3104D29F42EB
:1072B00002D9ACF102012B44DB1B41EA004192E709
:1072C0006046E3E76146F7E76046A3E76346B7E752
:1072D000834206D916B9002108467BE7C6E900E0DB
:1072E000F9E7B3FA83F78FB9834201D3724508D81F
:1072F000BEEB020460EB030301209C461EB9002193
:1073000068E73846FAE7C6E9004CF8E7C7F1200C11
:10731000BB4022FA0CF41C432EFA0CF120FA0CF3B9
:10732000B84001434FEA14490EFA07F5B3FBF9F8E8
:107330001FFA84FE09FB18300B0C08FB0EFA43EA17
:1073400000439A4502FA07F240D9E31808F1FF30EA
:1073500004D29A4502D9A8F102002344A3EB0A0300
:1073600089B2B3FBF9F809FB183308FB0EFE41EABA
:1073700003418E452CD9611808F1FF3304D28E45A4
:1073800002D9A8F10203214443EA0040A0FB02987D
:10739000A1EB0E014145CE46434602D306D14D45F1
:1073A00004D2B9EB020E68EB04030138002EA6D01C
:1073B000B5EB0E0261EB030101FA0CFC22FA07F3B4
:1073C0004CEA0303F940C6E9003198E74046C5E7B7
:1073D0004346D9E710F8012B11F8013B012A28BFD9
:1073E0009A42F7D0D01A7047034611F8012B03F8E0
:1073F000012B002AF9D17047034613F8012B002A0C
:10740000FBD1181A01387047F7B53E4DD5F85C31FD
:10741000996811F0010121D101AA40F6034006F05C
:1074200057FC044600286AD10198C3681B789BB9B1
:10743000BFF35B8FD5F8D430BFF35B8F05F1D40277
:1074400003F00903BFF35B8F52E8001F42E80034EA
:10745000002CF9D1BFF35B8F19F0EAFF01AA0021DC
:1074600041F2030006F034FC0446002847D1019B9A
:10747000254EDA68D2F80100D2F8051003C6184686
:1074800019F0D6FF214601AA41F2010006F020FCC6
:107490000446A0BB0198C3685A7885F870205A88C2
:1074A000A5F872201A7985F87120B3F80720A5F89D
:1074B0007420B3F80530A5F8763019F0B9FF2146ED
:1074C00001AA41F2020006F003FC0446B8B9019F8C
:1074D000FA68531C413218685968344603C40833AB
:1074E00093422646F7D1094823F0B8FA384619F0F6
:1074F0009FFF95F87C305B060AD46FF0120420469B
:1075000003B0F0BD40000020B8000020C000002003
:1075100001AA002142F2030006F0DAFB044600282B
:10752000EDD1019BB64EDA68D2F80100D2F8051011
:1075300003C6184619F07CFF214601AA42F2020058
:1075400006F0C6FB04460028D9D1019CE368B3F8D5
:10755000012091B249B1D97839B1A5F80421DA787E
:10756000114606F1280027F0A0FB204619F060FF25
:1075700095F87C6016F0200618D1022140F66D4087
:1075800006F04AFB0446002800F0CC8002210C30B3
:1075900026F061FB0123037046702146324640F617
:1075A0006D4006F095FB04460028A8D195F89C3064
:1075B0001F0712D501AA002142F21C0006F088FB29
:1075C000044600289BD10198C368D3F80120D3F862
:1075D0000530C5E9382319F02BFF95F8D8309E0601
:1075E00024D50DF10201684623F02EFD0446002843
:1075F00085D1042142F2240006F00EFB0646002845
:1076000000F0908004210C3026F025FBBDF80030FE
:107610000380BDF8023043802246314642F2240006
:1076200006F056FB044600287FF469AF95F8D83081
:107630005C0610D501AA002142F22A0006F048FBA0
:10764000044600287FF45BAF0198C3685B7885F837
:10765000203119F0EDFE082142F2010006F0DCFABB
:10766000044600285ED008210C3026F0F4FA95F884
:10767000D81011F0400F024640F2022308BF032346
:1076800088074CBF43F02C0043F00C0095F8D9302C
:107690008F0648BF40F0400013F0090F95F8A23064
:1076A00018BF40F4006003F00603CE0748BF40F067
:1076B0001000062B08BF40F4C070002123F035FBFA
:1076C0002146002242F2010006F002FB0446002897
:1076D0007FF415AF95F87C30B5F80411980624D4E2
:1076E000C9B901AA41F2050006F0F2FA04460028E1
:1076F0007FF405AFB5F80431019C4BB9E368B3F8EA
:107700000120A5F804219A883E48114627F0CDFAB9
:10771000204619F08DFE082140F6014006F07CFA63
:10772000044638B96FF06804E9E60029F3D16FF038
:107730000404E4E608210C3026F08DFA95F8D830E0
:10774000D907024653BF4FF000512BA1D1E90001E8
:107750002D4823F0EAFA2146002240F6014006F0C7
:10776000B7FA044600287FF4CAAE014601AA4FF6D4
:10777000014006F0ADFA044620BB019819F058FE0E
:10778000214601AA4FF6024006F0A2FA0446C8B903
:107790000198C368B3F80130A5F8C13019F048FE6C
:1077A00095F8C1305B070DD501AA21464FF603407D
:1077B00006F08EFA30B90198C3685B7885F8C0305E
:1077C00019F036FE23F098FE044600287FF497AEA9
:1077D00008F07AFA044600287FF491AEEB79002B8A
:1077E0003FF48DAE0821094823F00AFA06F040FD67
:1077F00085E600BFAFF30080908800020080002083
:107800001801002048010020108800021401002007
:107810002DE9F843D0E90C35D0F82C805C193034D0
:10782000A0450F46164619D81D4DA3FB05011AA306
:10783000D3E90023FFF764FC0346A4EB0800A0FB98
:10784000050123F07F4414A3D3E90023FFF758FC7C
:1078500020F07F403C603060BDE8F883DFF8409066
:107860000DA3D3E90023A8FB0901FFF749FC044657
:1078700005F1300008A3D3E90023A0FB0901FFF7BD
:107880003FFC24F07F4420F07F403C603060BDE846
:10789000F88300BFAFF300808D49FD1A0700000098
:1078A00000CA9A3B000000009FED097B0E4B0F4A77
:1078B0000F4983ED007B9FED087B82ED007B9FED00
:1078C000087B0C4B002281ED007B1A600EF0D0BAD1
:1078D000FFFFFFFFFF1F000000000000000000008E
:1078E0001F00000000000000A8010020002E002062
:1078F000A0010020404F0020002800F05F812DE90A
:10790000F04FB54C94F86A2012F001058DB040F0AC
:10791000A68194F82500FF2300F0030084F82630A8
:1079200016F07EFA94F86A00420727D494F82920CA
:1079300094F8353004EB820204EB8303D66AD3F863
:10794000388086B1A448314610F046F833785B069B
:1079500005D506210BF018FB002800F082819E4817
:10796000414610F039F8337813F00E0F40F0B7802D
:10797000236A93B10C200DB0BDE8F08F2A4604F1C4
:107980006B01C0F3C00016F0BBFBFF2884F8260093
:10799000CCD0284616F05EFAC8E70DF0B3FB81465E
:1079A000002800F06C810DF0B9FB8246002800F041
:1079B000638110F007FB0546002800F06281D0F8D3
:1079C00088004FF6FF732B8505F11C0B002800F093
:1079D0004E8105F1780105F17C020BF0E1FAB5F872
:1079E00076307E4A23F4EF6323F0070343F4887371
:1079F00043F00103A5F876301346D2F80120C5F80C
:107A00009B21C5F8A12113F8012B9B88A5F89F3174
:107A1000A5F8A53195F89A3102F0010262F300034E
:107A200062F3410385F89A3195F8393003F03F034A
:107A300063F07F0385F8393095F88E3023F0070323
:107A400085F88E3095F83C3023F00703002785F841
:107A50003C304FF4C023C5F888312846C5E9127779
:107A6000C5F88870A5F88C706F86C5F82E7085F8FB
:107A70003B702F65A5F88E71A5F8847112F088FC13
:107A800085F85071C5F8549110F058FD95F894316F
:107A900060F3020385F8943110F056FD95F89431A7
:107AA00060F3C50385F8943195F8803167F341039D
:107AB00085F880310121284611F0A6F905F1D4009E
:107AC00012F020FAC4E9189AC4F820B0C5E9057785
:107AD0002F70ED6117F05AFB002840F0C48094F835
:107AE00024300121C3F342030DF12B008DF82B301C
:107AF0000BF0F4FB0246002862D098F801103046E3
:107B00000FF02CFD31233649A360364BB4F8687072
:107B1000A0FB01010025C01841F107012CA3D3E906
:107B20000023C4E9055525706560E560FFF7E8FAB4
:107B300020610CF0E5FD00F109083FB9357805F04A
:107B40000F05A5F10105B5FA85F56D0994F8240036
:107B5000236965F3000010F0010584F824004BD080
:107B6000214A0992002010600225204A204F0493E8
:107B70000BAE019305920321CDE902000694434622
:107B80000090089607972A460B950CF0BBFC3146EF
:107B90000DF07EFBA0B9174905914AF2D833009346
:107BA000CDE90300CDE90100079708960694434606
:107BB000012203210B950CF089FC43E00FF01EBC61
:107BC000236A002B3FF4D6AE0FF0D6FBD2E600BFFF
:107BD0008D49FD1A07000000784F00204829050054
:107BE00000CA9A3B8C49FD1A6C4F0020D9750300DE
:107BF00055480300F5700300274A2848049303F210
:107C000047130694029591211360A7FB000301FB23
:107C10000731234B0793234B05934FF6FF730992CC
:107C2000022703930BAE1AA3D3E900230B97089600
:107C3000FFF766FA4346CDE900503A46284603214D
:107C40000CF060FC31460DF023FB0028B8D194F80D
:107C50006A300120034384F86A3016F0C3F800202C
:107C600089E6122087E60FF087FB032083E605F103
:107C70008000C5F88800ACE648460DF049FA0720B8
:107C800079E650460DF050FA48460DF041FAF6E715
:107C90008D49FD1A070000006C4F0020002AE78480
:107CA00055480300D975030070B590F824308AB0A8
:107CB000C3F342030D46044601210DF1230016468D
:107CC0008DF823300BF00AFB7178024628460FF03E
:107CD00045FC1F491F4AA0FB0131981841F10701DB
:107CE00019A3D3E90023FFF70BFA2369984205464D
:107CF00021D21B1A00220192174A0293174BA21A93
:107D0000A3FB02320221920900230A4409AE099121
:107D100013490591CDE903330321D2B206960093AE
:107D200018460CF04FFC31460DF0B2FA38B9256117
:107D300000200AB070BDFBD9C21A0023DBE70C207B
:107D40000AB070BDAFF300808D49FD1A0700000036
:107D500000CA9A3B8C49FD1A784F00208988888890
:107D600055480300000000002DE9F04F05468BB098
:107D70008B46012002219A46144619F0F1F80022A0
:107D80000221814601200BF05BF939494FF4D4728E
:107D900028460BF0E5F8C61CF6B2364B0095324685
:107DA000012100200CF026FC10F0FD0F0CD0324A0F
:107DB0003249334840F62F0320F0D6FF404080F38D
:107DC00011884FF0030002DF2E4BA4FB034820462E
:107DD00025A3D3E900234146FFF792F908950695BC
:107DE0002B690493284B20F07F47A7FB0331E01A4F
:107DF000264B07934FF00702254B059302FB071113
:107E00004FF6FE7368EB010103934FF47A7200237F
:107E1000FFF776F9CDF800B0CDE901705346324650
:107E2000012100200CF052FB10F0FD0F0CD0124A83
:107E30001249134840F6440320F096FF404080F377
:107E400011884FF0030002DFB9F1000F02D10BB02F
:107E5000BDE8F08F0122022110460BB0BDE8F04FC3
:107E60000BF0EEB8AFF300808D49FD1A070000005B
:107E7000082E00206D7F0300D4140500981505001E
:107E80000C10050000CA9A3B8D49FD1A157F0300AE
:107E900005D30300000000002DE9F043C469228DE2
:107EA0004FF6FF739A428DB000F088800546204659
:107EB00012F0F0FC95F82830012B00F00F81022B16
:107EC00000F00281002B00F0E18094F85071002F47
:107ED00040F0FD80E68DB4F83080002E71D1AA8C80
:107EE00008F101060023CDE90A33B6B2002A70D0AA
:107EF00094F93930002BC0F248810023A4F88A316C
:107F000095F82630D90740F1EF800023A4F88E3190
:107F10000DF127023146204612F076FA743000F057
:107F20004681B4F888312BB1B34240F20D819B1BDE
:107F3000A4F88831B4F884312BB1B34240F2FB800D
:107F40009B1BA4F88431258E17B9A84500F0EA8060
:107F50000135ADB294F8D13013F001065AD1DDE904
:107F60000A130A46002B40F0ED80002900F0DC8067
:107F70001E461846228DE4690694CDE90357033264
:107F8000A74D0290CDE90016D2B20121002005953F
:107F90000CF018FB10F0FD0F10D00DF0A3F9844287
:107FA0000CD0A04AA049A14840F2155320F0DCFEB5
:107FB000404080F311884FF0030002DF0DB0BDE8B0
:107FC000F083AA8C46440023CDE90A33B6B2002AD6
:107FD0008ED195F82630DA0797D4B4F88A31002B81
:107FE00000F08280B34240F2FA809B1BA4F88A31F1
:107FF000B4F88E31002B8BD09E4280F0DE809B1B2C
:108000009BB20022062BA4F88E31228600F2AC80AF
:1080100001277DE794F939206FF30003002A84F8E3
:10802000D13077DB94F87600C0F3C00100F0070090
:1080300016F012FFB4F86E20B4F86C30134403F25B
:10804000D51303447A4A7B480721E3FB00211046FD
:1080500071A3D3E90023FFF753F8DDE90A1320F0F9
:108060007F4220692261904235BF161A801A002093
:1080700000260A46002B7FF47DAF56EA010C7FF400
:1080800079AF002850D019461E4673E794F88E3019
:1080900003F01803182B7FF418AFA18DB4F88621D4
:1080A0008B1D9A42C4BF931F5B1AB4F88211CCBFD8
:1080B0009BB21346994200F08C80A4F88231A4F858
:1080C0008431A4F8882100E73D2784F850713946AF
:1080D00020460DB0BDE8F04310F054BB0023A4F8D7
:1080E0008831A4F88431F0E6B4F88E31002B83D1C6
:1080F000628DB4F88C3140F2E24101FB02F242F2AF
:10810000107101FB0323013BB3FBF2F39BB2A4F814
:108110008E316FE794F87700012100F0070016F028
:108120009DFE87E73D4615E7002D4BD00026114602
:10813000304633461EE70023A4F88431204612F06F
:1081400003FA00E7304615E70DF034F80146002841
:108150003BD00023A4F88831238DC3801B230371F7
:1081600000680CF0F1FFE5E694F939309342BFF670
:10817000CFAEB8F1000F7FF44BAFD4F878315A0886
:10818000DB0743D4C4F87821C2E628460AAA0BA923
:1081900004F1D409FFF73CFB484611F0F5FE18B393
:1081A000484611F0F1FE18B300232386A5E69DF89A
:1081B0002710204610F0E6FA00E70821204610F0CC
:1081C000E1FAFBE6002FB1D1F8E60123A4F88831EB
:1081D000B0E6B4F8881100297FF477AE6FE73E214E
:1081E000204610F0CFFAE9E6FF2010F083FAD7E737
:1081F0000246D4E91E010AF0EBFE0028D4D194F81F
:108200003C30580744BFA38D238676E642F00042F7
:10821000C4F87821FCE600BF8D49FD1A0700000074
:10822000D57E0300D4140500FC1505000C100500D4
:108230008C49FD1A00CA9A3B2DE9F04F87B0CDE971
:108240000423BDF8442003780292BDF84820BDF80D
:108250004080BDF84C50468EB0F82E90B0F814B166
:10826000019104460392002B00F08E80013EB6B2CD
:10827000A368D4F80C71721B92B2002B009209DA39
:10828000E168626823F0004391422CBF7F18BF1859
:10829000A360FF1A009A638D13FB02F39BB2B3FB3A
:1082A000F8F218FB02F080B283421FFA82FA5AD227
:1082B000C01A40F2E2425E4902FB00F0A0FB01015D
:1082C00059A3D3E90023FEF71BFF20F07F400744AA
:1082D000D94494F839304D44AD1B554440F2E24640
:1082E000DB09E58506FB08F552D1524A524953484D
:1082F00040F6BA0320F038FD404080F311884FF07B
:10830000030002DF0026A946029BA385039BA4F875
:108310008C3129462046A4F82A8012F0B1F8484B47
:10832000A18D2B44881DB3FBF5F39AB29042A4F8BB
:10833000862102D2521A063A92B2019BA4F88221F7
:1083400013B10023A4F88E313B464A4631462046FD
:10835000FFF70AFD94F8803143F0010384F880317F
:1083600007B0BDE8F08F08FB1231314840F2E2431C
:1083700089B203FB01F1A1FB00012BA3D3E9002388
:10838000FEF7BEFE3F1AA3E74E445E44B6B26FE767
:10839000226C0099A36CDFF898B002FB1133A36440
:1083A00016F044FF814694F87401C0F3420016F0C1
:1083B0003FFF049B814406FB03F305FB09F923659A
:1083C00009F574291F4B09F23F29A3FB09394FEA2C
:1083D000994303FB0AF02364A5EB0309A36C6A0825
:1083E0000344963A934228BF1346C4E9112300235D
:1083F000C4F87C31A0FB0B010BA3D3E90023FEF7EB
:108400007FFE114B059A3F1AA3FB0230800A06FB40
:1084100000F005A3D3E90023A0FB0B01FEF770FEDB
:1084200020F07F4670E700BF8D49FD1A070000006D
:1084300000CA9A3BD41405008C1005000C100500EE
:108440007FC3C90183DE1B435917B7D10000000069
:108450002DE9F04F04460B68077F1668D3F800A09B
:10846000638CD0F81E0095B015464A7CADF84C30B0
:10847000FF2AC7F3801389460D9212908DF83F3082
:1084800072D198461A4612AB93E803000DF1400BE7
:108490001090ADF84410F8090AF1710127680A91AB
:1084A0005B460C900B9710F055F80A99002843D1C1
:1084B00096F89A310C9A0A9068F3410362F300032C
:1084C00086F89A311098BBF80430C6F8A101A6F8D6
:1084D000A531DAF87130C6F89B318B88A6F89F3148
:1084E000E38D94F83010A9722B81D4F82A306B6098
:1084F000D4F83A30AB6105F1180094F83E300371BE
:1085000005210AF0EBFE6B7F00F03F0060F30503EE
:108510006B7794F83F30C3F30401A977A18EE9810A
:10852000012803F01F0389B206D91B3303F01F0390
:108530000B2B01D80A9A59BB0022CAF8142095F8CF
:1085400020300B9862F3000385F82030E56801269F
:10855000214626710CF0EEFD28682E7129460CF09C
:10856000F3FD15B0BDE8F08F0DF1400B10460DF195
:108570003F015A4615F0BEF99DF83F80277F08F16C
:1085800002085FFA88F88DF83F8008F0010282E760
:10859000D9F800305A60E38E2B82EB8940F2E24832
:1085A00008FB03F71146638E0A93304611F07CFFF7
:1085B00094F83F3096F874215B0963F3430286F820
:1085C000742116F033FE0C9096F87401C0F342004B
:1085D00016F02EFE0C9B184407FB00F0BA4B00F57A
:1085E000742000F23F20A3FB00307B08800C963BF8
:1085F0006862AB6294F8313008FB03F3AB63238FFE
:10860000A6F88C313946304611F03AFFAF4BB04AEC
:10861000C6F890213B44B3FBF7F39AB2A6F8862143
:10862000298A881D824204DDC1F57F41FA310A445E
:1086300092B2A6F882216B68C6F87831234613F807
:108640001C2FC2F34018DA0700F104814FF4807345
:10865000A3839AF8260015F067FE04F12B03002887
:1086600000F0EE80626AC4F82B20228D9A800D9B68
:10867000FF2B00F0E980BDF84C301298A4F82930A7
:10868000C4F82500BBF80430A4F8233010989DF8F6
:108690003F30C4F81F00A377EB8963862B8AA3863B
:1086A000B6F88C31E38696F87431C3F3420384F84C
:1086B000383030460FF092FCA881E08021460B98BC
:1086C000D9F804400CF036FDAB89E3801C23D4F8C4
:1086D00000B02371B8F1000F40F0D18084F81C8005
:1086E000214658460CF030FD95F85B00B5F85080F7
:1086F000B5F85240012100F0070016F0AFFB4444EA
:1087000004F2D514DFF8D48104448346714807216C
:10871000E4FB080131230024B360746068A3D3E94B
:108720000023F460FEF7ECFC20F07F4030616D6ABE
:108730000A9A7D1BD9F80C7040F2E24303FB0277E2
:108740000221224601200AF07BFC50460FF000F97E
:1087500007F2B2470246A7EB0B07A7FB0801174633
:1087600057A3D3E90023FEF7CBFCCDF804A0D9F83A
:1087700008305949009120F07F48BA1C3A3BD2B2E8
:108780002046434401210BF077FF012800F082804E
:108790009AF82430DB076AD430460FF01FFC4F4BA9
:1087A000A5FB035A044646A3D3E9002328465146B5
:1087B000FEF7A6FCD9F80830494A0792A3F13A0916
:1087C000484B069620F07F47A7FB0331E81A464B3B
:1087D000059340F2D113089333694FF0000BCDE9B4
:1087E00003B34FF0070303FB07116AEB01014FF4DA
:1087F0007A720023FEF784FC0334E4B2CDE9017001
:10880000CDF800804B462246012158460BF05EFE13
:1088100010F0FD0F0CD0354A354936484FF4E97356
:1088200020F0A2FA404080F311884FF0030002DFED
:108830000122022110460AF003FC15B0BDE8F08FBA
:10884000C4F82B00988012E70022C4F82520A4F871
:10885000292017E7254A28492648F82320F084FADA
:10886000404080F311884FF0030002DFEEE6002362
:1088700001220093184611460BF0BCFE8CE76B7F7B
:1088800043F040036B77281D14F03EFE4FF00108C3
:10889000E88323E70CF026FD82453FF479AF134AC5
:1088A0001649144840F2792320F05EFA404080F3E4
:1088B00011884FF0030002DF6AE700BFAFF30080CA
:1088C0008D49FD1A0700000083DE1B437FC3C901E9
:1088D000404B4C008C49FD1AC9D2030000CA9A3B98
:1088E00099D203008D49FD1A05D30300841A0500AF
:1088F000981505000C100500A8120500E01A0500E7
:1089000010B5334C3349002304F1FF3C14F83320F5
:10891000072A02EB820E05D811F83E206FF34512AC
:1089200001F83E201CF833206FF300020CF83320CE
:108930000133082BEAD1284A284C002313700A7807
:1089400063F300020A7091F8282063F3000281F8B3
:10895000282091F8502063F3000281F8502091F80C
:10896000782063F3000281F8782091F8A02063F367
:10897000000281F8A02091F8C82063F3000281F87A
:10898000C82091F8F02063F3000281F8F02091F8FC
:10899000182163F3000281F81821114A9FED0A7B28
:1089A0001370104B83ED007B0F4B236028B1BDE8A3
:1089B00010400E490E4826F03FBABDE810400C4862
:1089C00026F048BAAFF30080FFFFFFFFFFFFFFFF75
:1089D0006D5A00202C590020896D00203C58002041
:1089E000886D002080360020A0BB0D0041E0030010
:1089F00050360020000000002DE9F04F8FB00DF13F
:108A000037010446DFF8E0A0DFF8E0800DF1360022
:108A10000CF018FC9DF836309DF837B00B930BF036
:108A20006FFEDAF80060A6FB085629A3D3E90023FD
:108A30000027814631462846FEF762FBCDE90777DD
:108A4000069420F07F44DAF80400234B0593A0FB42
:108A500008011FA3D3E90023FEF752FB1F4B20F0B0
:108A60007F40A4FB0331072202FB0411CDE9037010
:108A7000E81A66EB01014FF47A720023FEF740FB1F
:108A80000097CDE901404B460B985A4603210BF065
:108A90001DFD10F0FD0404D06FF08B000FB0BDE899
:108AA000F08F0F480F4A00231DF0F4FE20B9DAF8CA
:108AB0000C000FB0BDE8F08F9DF837209DF8360010
:108AC0000094234603210BF095FD6FF07300E5E75A
:108AD0008D49FD1A07000000D5E503008D49FD1AF8
:108AE000E05A0020447B0B00F85A002000CA9A3B51
:108AF00038B50F4D04460BF003FEA9680BF002FEDB
:108B0000696803460B48B3FBF4F4A1FB00011C4465
:108B100005A3D3E90023FEF7F3FA20F07F40844257
:108B200094BF0020012038BD8D49FD1A07000000C8
:108B3000F85A002000CA9A3BF0B5C468636883B055
:108B40000546002B63D117F097FD002017F0BAFD02
:108B50000021084617F0A8FD00222521082017F063
:108B6000E7FD454B019301A817F0CAFD434940F2C8
:108B70005B6017F06FFE237AC3F3420262F30613C1
:108B80002046237216F072FD15F0A2FC58BB637AE2
:108B90009B071FD127682E68384616F0FBF806445D
:108BA0006A6806F10901012017F09CFF18F05AF8D5
:108BB00020460EF0D9FE811C3246C9B2384616F066
:108BC000F7F8054670BB204616F08CF888B90020EF
:108BD00003B0F0BD012015F0F9F84178821C00784F
:108BE00017F020FFD6E7607A10F0030018BF0120CD
:108BF000F1E7234A2349244840F22C4320F0B4F8FB
:108C0000404080F311884FF0030002DFDFE793F864
:108C100020309A0797D01D48214617F0EBFC17F03B
:108C2000D3FDD4E7164A1A49174840F2144320F0FE
:108C30009BF8184B0721A5FB030301FB05310CA38F
:108C4000D3E90023FEF75CFA13490246134820F0EB
:108C50008BF8404080F311884FF0030002DF10488A
:108C6000214617F0C7FC17F0AFFD6FF08B00AFE7A0
:108C700000CA9A3B00000000D6BE898E55555500AB
:108C8000B41E0500781105000C10050039EF030033
:108C90008C1005008D49FD1A641F0500381F050062
:108CA0003DF20300000000002DE9F041C468A289F4
:108CB0004FF6FF739A4282B000F0C780054616F067
:108CC000FDFF2B89628AE08A1A4492B21044637FC6
:108CD000A28280B2411CE1825E064FF000016182F7
:108CE00004F1180100F18C8003F03F000B46A17FD6
:108CF000009004F11F0014F0BFFB0646D4E90B23DB
:108D00001344D4E90D0200210244E1626163A16AC7
:108D1000A26394F872208B4228BF0B4612F0040223
:108D2000236377D017F0A8FC002017F0CBFC201DA0
:108D300017F0E6FC2389A17A40F25B6043EA014127
:108D400017F088FD304616F045F82146584817F0D0
:108D500051FC962017F0BAFE94F85A2094F85B0064
:108D6000C2F3C003002102F0070200F0070017F071
:108D7000D7FD204617F004F827682E68384616F00D
:108D800009F806446A6806F10901002017F0AAFEF6
:108D9000804617F03BFF002017F052FF236B94F83A
:108DA0005B0003F13002A36B00F00700012103EB2D
:108DB000420517F0FBFC4544054494F85B0000F0C5
:108DC0000700022824D004280CBF4FF4BC732823CA
:108DD00001211D4417F0ECFC284417F009FFA1897C
:108DE00003313246C9B2384615F0E2FF054698BB5A
:108DF000204615F077FFD0B9002002B0BDE8F08121
:108E00000A4603F03F03E18B14F082FB064675E748
:108E10001823DDE7D4E917010AF0DAF8002881D138
:108E200094F8723043F0040384F872307AE7214AF0
:108E30002149224840F255131FF096FF404080F32D
:108E400011884FF0030002DFD6E71D48214617F0D6
:108E5000D1FB17F0B9FCCFE7164A1A49174840F280
:108E60004B131FF081FF184B0721A5FB030301FBE8
:108E700005310DA3D3E90023FEF742F91349024659
:108E800013481FF071FF404080F311884FF003003A
:108E900002DF1048214617F0ADFB17F095FC6FF08C
:108EA0008B00AAE7AFF3008000CA9A3B00000000E5
:108EB000D9FF0300DC1F0500781105000C10050028
:108EC00039EF03008C1005008D49FD1A3020050094
:108ED000381F050015EF03002DE9F0472DED028B3B
:108EE0009FED498B4A4E84B004464FF02003EFF3C8
:108EF000118783F31288BFF36F8FD4F8C8508DB9F0
:108F0000022104F1E00025F0E0FE002843D1002317
:108F10008DED008B029304F1D00239463D481EF0DE
:108F200097F9E2E7D4F8CC202B68C4F8C830954212
:108F300008BFC4F8CC30D4F8E03043F00203C4F8E2
:108F4000E030EB6823F0040343F00103EB606B684F
:108F500087F31188BFF36F8F284698474FF020039F
:108F6000EFF3118983F31288BFF36F8FEB689907D2
:108F700023F0010219D4EA60D4F8E03023F00203B0
:108F8000C4F8E03089F31188BFF36F8FDB05ACD4F0
:108F90001EF03EF8A9E704F1D80500220121284679
:108FA00026F099F80028F8D1B1E7306823F00303E0
:108FB000EB600028E0D00027D0F80080BA460028F7
:108FC000DAD04268954201460BD1016897B97268C0
:108FD0003160824200D1716040F808AB1DF034FC72
:108FE0003946B8F1000F0BD0D8F8002040460F46A4
:108FF0009046E4E739607268824208BF7760EBE729
:109000004246F3E7AFF30080FFFFFFFFFFFFFFFFE4
:10901000486B0020A06D002001481DF017BD00BF67
:10902000B002002007B526F093F84FF47A72A0FB47
:10903000020302FB0131C00B074A40EA41401060C5
:1090400000234FF400420548CDE900231EF0DEFA6C
:10905000002003B05DF804FB283A0020F80E002041
:10906000014B187800F06EB9566C0020044B1A784A
:10907000824202D01870FFF7F3BF0020704700BF94
:10908000566C002008B526F063F84FF47A72A0FB06
:10909000020302FB0131C00B044A40EA4140106068
:1090A000BDE808400020FFF7E1BF00BF283A0020DC
:1090B00008B526F04DF84FF47A72A0FB020302FBCC
:1090C0000131084AC30B126843EA41439B1A47F235
:1090D0003052934204DDBDE808400120FFF7C6BFCF
:1090E00008BD00BF283A0020014B1878704700BF28
:1090F000566C0020F8B5044610B900252846F8BD86
:109100000378002BF9D00F4E0F4FBE420FD30D4EF8
:10911000BE42F2D2306825F02BFC30B135682146D2
:109120002868FEF757F90028E8D00436F0E73068E1
:1091300025F01EFC18B135682B68A342DED004363A
:10914000E3E700BFAC400500D440050070B5194C02
:10915000194D8CB00022002303A920461DF030FADF
:1091600008B10CB070BD2B68059E5868DDE903128C
:109170001EF027FE0028EDDBFF238DF81830B6FA2D
:1091800086F35B0907908DF8203025F0E1FF4FF45E
:109190007A72A0FB020302FB0131C00B40EA41409E
:1091A000C90B8DE8030006ABCDE90A010FCB00F037
:1091B000E3F8CFE7001000203C3A00201FB50A4C2E
:1091C0002468A46884420DD183F00103CDE9011223
:1091D000039306480022002301A91DF09BF90448CF
:1091E0001DF034FC04B010BD3C3A002000100020FB
:1091F0002C3A002038B50446C8B10E4D2B68834286
:1092000013D02BB1986818B183685B6803B1984795
:10921000A0682C6048B1836807491B6898472B6891
:10922000986883689B6803B19847002038BD6FF049
:109230001200FBE73C3A0020BD91020010B9034840
:10924000FFF7D8BF6FF01500704700BFC4FF0400E0
:10925000F7B50C4615460D4901AA1E4620F0E2F866
:1092600068B1019B6BB9012C0DD1094F22463946DB
:109270003046A847002802DD3878FFF7DFFF03B04B
:10928000F0BD0020FBE76FF01500F8E7CA230500EA
:10929000940E00200148FFF7ADBF00BFC4FF0400DB
:1092A00008B50449044825F083FDBDE80840FFF7F0
:1092B000F1BF00BF4D9102002C3A0020F8B50F4DD0
:1092C0000F4E761B07460C4605EBC105C6F3C706D5
:1092D000A64201DC00200CE02A683B689A4209D1D2
:1092E0003C716B6838461B68984718B1431E012BC8
:1092F000F0D9F8BD01340835EAE700BF742D050048
:10930000BC2D05000D4B0E4AD21A70B4C2F3C70231
:109310000024A24203DC6FF0150070BC70471E6889
:109320000568AE4206D15D688D4203D1E1B270BCE2
:10933000FFF7C4BF01340833EBE700BF742D05000D
:10934000BC2D05001FB50023CDE90233044B8DF879
:109350000C0001A801931EF04EFD05B05DF804FB62
:10936000D8FF04000268034B9A420CBF083000206B
:10937000704700BFD8FF040084B030B589B00CAC92
:1093800084E80F00002301930CAD084B00930FCD30
:1093900002AC0FC495E8030084E8030068461EF0A1
:1093A0002AFD09B0BDE8304004B07047DCFF04007E
:1093B0000268034B9A420CBF08300020704700BF80
:1093C000DCFF04001FB50023CDE90233044B8DF808
:1093D0000C0001A801931EF00EFD05B05DF804FB22
:1093E000E8FF040082B038B504A981E80C00054606
:1093F00011481CF04BFE0446A0B16B68012B0CD049
:10940000022B05D0A3B9BDE8384002B01EF018BD4C
:109410001EF01DFD00282046F5DCBDE8384002B0F6
:109420001EF007BD6FF00400BDE8384002B0704781
:109430006FF08500F8E700BF7F24050082B010B50B
:1094400002A981E80C0004460B481CF01FFE78B10D
:109450006368022B04D00020BDE8104002B07047C2
:109460001EF0F5FC0028CCBF002001206060F2E770
:109470006FF00400F0E700BF7F2405000D4A52F8AA
:109480002030013342F820300B4A01231178834009
:109490000B430A490978DBB2137023EA0103084938
:1094A000084A097850780B43181A537018BF0120E6
:1094B000704700BF403A0020596C0020576C0020D4
:1094C000586C0020A20E002010B5114A52F820302E
:1094D000002B19DD013B42F820300E4A2BB91378DE
:1094E0000121814023EA010313700B480B4B0478E0
:1094F00010780B4A5978127820EA0400104358700B
:10950000401A18BF012010BD6FF01500FBE700BF27
:10951000403A0020596C0020576C0020A20E002019
:10952000586C0020044A012312788340D8B21340BB
:109530001B1A584258417047596C002010B5084B0F
:10954000084A1870084B51781C78084B1B7823EA9E
:10955000040318435070401A18BF012010BD00BF0B
:10956000586C0020A20E0020576C0020596C00207F
:10957000074B00221A70074B074A1978074B50789F
:109580001B7823EA0103181A537018BF0120704793
:10959000586C0020576C0020A20E0020596C00204F
:1095A000A0F1E003072B03D82030C0B2FFF766BF5D
:1095B000064B062213F8011F19B1013AFAD1002017
:1095C000704718700028F8D0F9E700BFA40E0020FB
:1095D000A0F1E003072B10B405D820305DF8044B50
:1095E000C0B2FFF771BF0023064A194612F8014FB7
:1095F0000133A04208BF1170062BF7D100205DF89F
:10960000044B7047A40E0020A0F1E003072B03D801
:109610002030C0B2FFF786BF064A002312F8011FB0
:10962000884204D00133062BF8D100207047012076
:10963000704700BFA40E0020024B00221A605A603F
:10964000704700BFA30E002010B50849002301EBAE
:109650004302B2F8014024B10133062BF7D10020B8
:1096600010BDA2F801000028F6D0F8E7950E002002
:1096700030B50023074C194604EB43020133B2F81E
:109680000150854204BF51709170062BF4D1002027
:1096900030BD00BF950E0020024B00221A605A60B8
:1096A0009A607047960E0020074A002302EB4301A0
:1096B000B1F80110814204D00133062BF6D100200D
:1096C00070470120704700BF950E0020004870478A
:1096D000A20E002000487047950E00202DE9F041B1
:1096E0000B4E337883B10B4CDFF82C80002542F20F
:1096F0000F7720464146013525F09EFB0A2D44F8A0
:10970000207C04F15804F4D100203070BDE8F081D1
:10971000AB0E002050190020E78004000B4A30B542
:1097200000230446282000FB03F18D18515C41B949
:109730000FCC0FC50FCC0FC594E8030085E80300DC
:1097400030BD0133282BEED1FAE700BFF012002024
:1097500010B5C269037ED17D8EB0044609B1032BDA
:1097600034D0023B012B517D07D800292ED1204651
:109770000EB0BDE810401EF093BC21B1937D13B92B
:1097800020461EF020FC0023CDE903330693059309
:10979000E36922689B680393D4E90401A3680493F6
:1097A0000B4B0792C3E90201CDE908011A6006AB31
:1097B0000FCB0AAC84E80F000EAB13E903008DE871
:1097C000030003A894E80C001EF020FC0EB010BDAE
:1097D000000000202DE9F843027E0346002A6ED1E6
:1097E0003B4D2A6882426AD1D269547D24B119B9AD
:1097F000BDE8F8431EF054BC107D032828D8DFE8EC
:1098000000F0020E1F600139042921D8DFE801F0C1
:109810001E0320051E00022119E0032117E0013973
:10982000042915D801A050F821F000BF4D9802007E
:1098300051980200179802001B9802004D980200F0
:109840000429EAD001F0FB01012901D10121197697
:10985000197EA1B3D06900280DDD5C6D611C0AD0B2
:109860001C32002152F8046FA64204D00131884214
:10987000F8D101221A76002218462A60FFF768FF05
:109880002C68E4B9134EDFF85080A14616F8087C26
:10989000AFB12B6806F8089C23B14FF4A4700021E7
:1098A0001DF038FC012F01D0022F03D14146304674
:1098B000FFF728FD0134282C06F12806E6D1BDE883
:1098C000F8830229A7D0BFD904390129BED9BFE73F
:1098D000603A0020F8120020B400050082B02DE9A3
:1098E000F0412F4E06A981E80C000024582202FB0B
:1098F00004F0851931588B424AD12030304425F08C
:10990000A9FAEB691968D5E904238A1843EBE173D6
:1099100008998A42099A9341804603DA042128462D
:10992000FFF758FF582707FB046701212846FFF778
:1099300051FFFB69DB7D53B13B7E032B07D12846EA
:109940001EF07EFB012328463B76FFF701FF2846E9
:109950001EF076FB582303FB0463DB695A7D22B1BA
:109960009B7D13B128461EF02EFB18F1770F4FF0A8
:1099700058031DBF5C4342F20F72331903FB0463AB
:1099800017BF3251012200221A7683F8502002E0DC
:1099900001340A2CABD1BDE8F041002002B0704781
:1099A0003019002082B02DE9F84F05460AA9006859
:1099B00081E80C001EF003FA3A490C6802469CB993
:1099C000D5E9019ADDE90CC0DDF82CE0364F4FF007
:1099D000580842F20F7B08FB04F6F519BB595B45AA
:1099E00007D001340A2CF6D1BDE8F84F002002B0B0
:1099F0007047D2F8048047F806E0C5E9019A0023D1
:109A0000C5E904C0DFF8A4902B764FF0FF33C5F80A
:109A10001C806B650D60D9E90221D8F8103013EB7A
:109A2000020A41EBE373D44570EB03030CDBD9F876
:109A300000309E450CD1D8F80C309A1841EBE371F8
:109A4000944570EB010103DA05212846FFF7C2FEB9
:109A500000212846FFF7BEFE582303FB047421694A
:109A6000D8F800400C4425F073FB4FF47A72A0FB49
:109A7000020302FB0131C30B43EA4143E11A21EA2D
:109A8000E17140F2E7304FF47A72002300EBC1300D
:109A90004914FDF735FB203602460B46B8191DF078
:109AA0003DF8A1E7603A00203019002000000020B6
:109AB0002DE9F0418AB00446FFF77AFC00286CD00B
:109AC0002046FFF775FC524D47680446002642F2D7
:109AD0000F782B689F420CD043450AD0EB69DB7DA1
:109AE0003BB12B7E032B04D102232B762846FFF7B4
:109AF0002FFE01360A2E05F15805EAD1454D28689A
:109B000008B900202CE0C369227A197E914204D062
:109B1000426D013204BF6268426501686268914229
:109B2000EFD01968D0E904238A1843EBE173D4E934
:109B30000461B2428B4116DB237ADBB1012321465B
:109B400002A88DF800301EF059F96846FFF7E6FDCF
:109B5000217A2868C1F10301C9B2FFF73BFE022058
:109B60000AB0BDE8F0810421FFF734FE2B68002B1A
:109B7000C7D0E1E76068284A11780029C1D00129DF
:109B800005D15169884202D1117E0029D6D1013315
:109B9000282B02F12802EFD1B3E7204600F03AFB70
:109BA0000028DDD0204600F035FB837A01469BB1CA
:109BB0004368E03B072B02D80378072B0CD0174BE8
:109BC000D1E90402D3E9025485429441BEBFC3E9FE
:109BD00002024FF000441C600E4B18680028BFD0F2
:109BE0004B68E03B072B8CD80B78072B89D1C369D6
:109BF0005B7D13B1007E0028B2D002A802248DF84C
:109C000000401EF032FC6846FFF788FDA7E700BF62
:109C100030190020603A0020F012002000000020DF
:109C200070B50D6804460E4628462349FDF7D2FB61
:109C300010B92072012070BD20492846FDF7CAFBEB
:109C400010B901232372F5E71D492846FDF7C2FB31
:109C500008B90223F6E71B492846FDF7BBFB10B9FC
:109C600073686360E6E718492846FDF7B3FB10B94F
:109C700073682360DEE715492846FDF7ABFB10B992
:109C80000123A373D6E712492846FDF7A3FB10B9B9
:109C90000123E373CEE70F492846FDF79BFB08B984
:109CA0000223EEE70C492846FDF794FB08B902238E
:109CB000EFE70020BFE700BFCB240500D524050057
:109CC000E1240500EF240500FE2405000E25050013
:109CD0001F25050030250500412505002DE9F84325
:109CE000D0F804800769D8F80830DFF848903B6165
:109CF00000247B81BC8108F10C06D8F80830A3420F
:109D000011D931463846FFF78BFF651C70B93068B2
:109D10004946FDF75FFB48B9ADB27D81D8F8083000
:109D20003C615B1BBB810020BDE8F8832C460C36F0
:109D3000E3E700BF522505002DE9F04395B014225A
:109D400000210FA825F0B4FDDFF8D4804FF47A7716
:109D5000002200230FA940461CF032FC002849D104
:109D60000F9E029025F0F4F9A0FB070C07FB01CC35
:109D7000C50B45EA4C459DF84C30CDE903654FEAEB
:109D8000DC3C13F0010FCDF814C002AB0FCB06ACD6
:109D900084E80F000DF128092FD0CDE90765CDF833
:109DA00024C094E80F0089E80F0010981EF007F80F
:109DB00050B183689C683CB1DDE90C018DE803007B
:109DC00010A899E80C00A047139C012CC0D9C4F33B
:109DD0005E044FF4004540F2E73000214FF47A7200
:109DE0000023E5FB0401FDF78BF902460B460B4807
:109DF0001CF094FE15B0BDE8F083CDE90765CDF801
:109E000024C094E80F0089E80F0010981DF0D7FFD8
:109E10000028D9D08368DC68CDE700BF100000209F
:109E20003010002010B58AB001AC84E80E0005A8FF
:109E30001122002125F03CFD94E8070006AB83E8E1
:109E400007009DF830300D9A43EA42030993094810
:109E50000022002305A91CF05DFB002804DB064856
:109E600024F0F6FF10B100200AB010BD0248FFF741
:109E700063FFF8E7301000201000002008B5094B00
:109E80001B7823B1012B06D06FF0850008BDBDE81B
:109E900008401EF0BABBFFF719FCBDE808400130CE
:109EA00000F0A4BC783A002008B5094B1B7823B118
:109EB000012B06D06FF0850008BDBDE808401EF0FC
:109EC000ACBBFFF707FCBDE80840013000F0B4BCB4
:109ED000783A002002490348012202F0E7B800BFA7
:109EE0005A6C00207B25050070B5002506460560EC
:109EF00000F0E4FA044680B100F05CFD022806D0D0
:109F000000F0CAFB012370603370304670BD064B11
:109F10001B78012BF4D02846F5E700F04BFD022812
:109F2000EED123462046EEE75A6C002037B50849AB
:109F30000848094D6C4624F07FFF2046FFF7D4FF08
:109F400094E8030085E80300002003B030BD00BFA3
:109F5000D59E0200A01C0020783A002082B00DF1AE
:109F6000080C0CE9030019469DF8003010461BB19F
:109F7000012B05D0054A00E0054A02B01DF01EBCC9
:109F8000019B044A02B01DF019BC00BF9A250500D0
:109F90008F2505009325050030B589B001AD0F4C24
:109FA0002846FFF7A1FF94E80C0095E803001EF097
:109FB00077F980B91EF09BF995E803000A2305AAFA
:109FC00084E80300FFF7CAFF94E8030003AB83E8CB
:109FD000030000F023F809B030BD00BF783A00203C
:109FE00070B50C4615460B4900221E461FF01AFAA2
:109FF00008B9002070BD012C08D10749224630461F
:10A00000A8470028F6DDFFF7C7FFF2E76FF015005D
:10A01000F0E700BF852505005A6C00207FB56B4630
:10A0200083E8030093E80300002206AB03E9030082
:10A03000039202A8034A02921DF0DDFE07B05DF80C
:10A0400004FB00BF0401050003281FB530D830BB56
:10A0500011B9002004B010BD174B1A6801238340CA
:10A060001343154C9A422360F3D08DF800008DF80D
:10A07000011025F06DF84FF47A72A0FB020302FB89
:10A080000131C00B40EA4140C90BCDE9020104ABEC
:10A0900013E90F0004B0BDE8104000F089B8064B8A
:10A0A0001A680029DAD10123834022EA0303D8E7A2
:10A0B0006FF01500CEE700BF0C3B00202DE9F04FFC
:10A0C0001F464FF4D27315464B430C2202FB053357
:10A0D000204A1A440E4607CA8DB005AC84E8070032
:10A0E000DDE916AB1DF06BFE804668B30598CDE93F
:10A0F0000865CDE90AAB1DF062FE8368D3F80490D1
:10A10000B9F1000F09D00CAB13E90300DDE9082316
:10A110008DE803002046C84798B9D8F808301B7866
:10A12000022B13D8CDE90865CDE90AAB0CAB029739
:10A1300013E9030032468DE803002B4620461EF04B
:10A140003FF90DB0BDE8F08F0120FAE76FF0850010
:10A15000F7E700BF100105002DE9F34DDDE90AAB7B
:10A16000DFF8488007460D4616461AB10E4B1B68AD
:10A1700048F82130032458F82510E0B21EF010F9F9
:10A1800030B9013CF7D26FF0850002B0BDE8F08D28
:10A19000CDE900AB33462A4621463846FFF78EFF0D
:10A1A0000028F2DDEDE700BF0C3B0020803A0020E4
:10A1B00010B58AB06C4684E80F0000230593064B67
:10A1C000049394E80F000AAC04E90F0004A81DF002
:10A1D00012FE0AB010BD00BFA007050084B030B564
:10A1E00089B00CAC84E80F00002301930CAD084B40
:10A1F00000930FCD02AC0FC495E8030084E8030080
:10A2000068461DF0F8FD09B0BDE8304004B0704765
:10A21000A80705000268034B9A420CBF08300020D3
:10A22000704700BFA80705007FB56B4683E80300B1
:10A2300093E80300002206AB03E90300039202A89F
:10A24000034A02921DF0D7FD07B05DF804FB00BF82
:10A25000AC070500074B1A78074B82B0162102FBAA
:10A26000013301938DF8002002AB13E9030002B023
:10A27000FFF7DABF5B6C00205C6C002002490348EA
:10A28000012201F013BF00BF5B6C00202E260500E9
:10A2900008B5002003F0FEFF002802DA10F1780F65
:10A2A00007D1044801F092FF0348044924F0C4FD9B
:10A2B000002008BDA4030020D01C00207DA20200C5
:10A2C00070B503788AB004460E4607AD032B20D83C
:10A2D000DFE803F002191B1D11492846FDF784F839
:10A2E000059563780493A3780393E3780293237925
:10A2F000019363790093A3790A4A1E2130461DF029
:10A300005DFA0AB070BD0849E7E70849E5E7084982
:10A31000E3E7084A0A2128461DF050FAE0E700BFAB
:10A32000412605006A260500482605004F2605003F
:10A33000592605006326050010B590B0044621F0AB
:10A34000D4FB6946FFF7BCFF08A9204605F000FBD7
:10A350009DF82130012B14D10B481CF077FB2046CF
:10A3600021F0C3FB094B19780F22162313FB01239D
:10A3700007490722194425F035FA10B905481CF0A1
:10A3800065FB10B010BD00BFBC0300205B6C00205B
:10A390005C6C0020CC0300202DE9F0418AB00D4612
:10A3A00016461F496A4604461F461FF03BF808B38D
:10A3B0000098F8B10A2201A91DF054FA019B1B78FC
:10A3C0005BBB162D29D1C4B2042C26D8DFF85C80E3
:10A3D0006C432A4608EB04013846B047002806DDE6
:10A3E00004F10F0002A94044FFF76AFF00200AB001
:10A3F000BDE8F0810B496A4620461FF013F800289B
:10A40000F4D0009B002BF1D1012D06D106492A463C
:10A410003846B04700EAE070E9E76FF01500E6E77C
:10A420008D260500322605005B6C00205C6C002048
:10A4300008B5084B084819780F22162313FB01238F
:10A4400018440649072225F0CDF9B0FA80F04009FA
:10A4500008BD00BF5B6C00205C6C00204F2905002C
:10A460002DE9F0410C468EB005464FF0160806A9BE
:10A47000204615FB08F7FFF723FF0D4E216807F173
:10A480000F029319B150A2889A80A2799A71094952
:10A490002A4601A81DF0BEF94246F11901A801F0B3
:10A4A00005FE05481CF0D2FA0EB0BDE8F08100BFF1
:10A4B0005C6C002096260500CC03002010B5124BE2
:10A4C00012491A7816240F2314FB0234104B1C4433
:10A4D00088B00722204625F085F910B9002008B081
:10A4E00010BD2146002005F0E1F904460028F5D012
:10A4F000694605F02DFA204621F018FA9DF81C0057
:10A50000831E58425841EAE75B6C00204F29050042
:10A510005C6C0020F0B58DB0FFF78AFF98B9FFF7AB
:10A52000CDFF80F001035B00DBB2214D2A7803EB05
:10A530000213112B09DC022B2DD0102B23D0002469
:10A5400020460DB0F0BD0223EFE7202B1BD0122BCD
:10A55000F5D104F0EDFB00232B7004460028EFD169
:10A56000144F0FCF02AE0FC63B681349336004226D
:10A570000094234602A804F0A9FB04460028DFD17A
:10A5800002232B70DBE704F0D3FB00232B7004467F
:10A590000028D4D0D4E7074E0FCE07AC0FC43368E1
:10A5A0002360002304490093042207A8E3E700BFC7
:10A5B000CA6C002080FE0400B007050030B591B0E1
:10A5C000054621F092FA69460446FFF779FE08A98C
:10A5D000284605F0BDF99DF82130012B05D1FFF784
:10A5E00027FF214618B903F03FFD11B030BD034BE2
:10A5F0001878FFF735FFFFF78DFFF6E75B6C00205B
:10A6000030B591B00D4608A9044605F0A1F99DF8B2
:10A610002130012B0BD1204621F067FA6946FFF764
:10A620004FFE0F4B00221A701DB1FFF773FF11B0E0
:10A6300030BDFFF76FFF204621F057FA094B19781C
:10A640000F22162313FB012307490722194425F083
:10A65000C9F80028EBD105481CF0F8F9E7E700BF7E
:10A66000CA6C00205B6C00205C6C0020CC030020D6
:10A6700008B5064805F0F4F8054805F0F7FA05486E
:10A6800005F00EFBFFF746FF002008BD8803002001
:10A690006C0300205C030020014B1878704700BF5A
:10A6A0005B6C002010B50A4B0A491A7816240F2358
:10A6B00014FB0234084B1C440722204625F092F874
:10A6C00028B121460020BDE8104005F0EFB810BDCC
:10A6D0005B6C00204F2905005C6C00201FB54D24E9
:10A6E0000294044C0194BDF81840009422F00FFB32
:10A6F00004B010BDCE26050007B5064B00930649F1
:10A70000064805234FF440721CF0A6F9002003B060
:10A710005DF804FBD0070500A86D0020001D002097
:10A72000F0B5164E164F89B0002200236946304618
:10A730001BF046FF054608B109B0F0BDFFF7B2FFB8
:10A7400004460028F8D01822294602A825F0B0F8BF
:10A7500008230DEB030120460397CDF810D0ADF888
:10A76000143007F011F9013003D10221204621F005
:10A7700063F9204621F0DAF8D6E700BF90100020F8
:10A780003C0805002DE9F041164FDFF85C808AB0E7
:10A7900001AE00220023314638461BF011FF05466A
:10A7A00010B10AB0BDE8F081FFF77CFF0446002835
:10A7B000F7D01822294604A825F07AF80C2304A91A
:10A7C0002046CDE90586ADF81C3007F0DDF80130F4
:10A7D00003D10221204621F02FF9204621F0A6F8CE
:10A7E000D7E700BF601000208C08050037B505468C
:10A7F00040F6CD42014600230C481BF08BFE044678
:10A8000078B110F10B0F09D10022002369460748E7
:10A810001BF0D6FE2846FFF7E9FF0446204603B0AA
:10A8200030BD0349034824F0F0FAF7E79010002008
:10A83000EC030020001D002030B5054685B040F631
:10A84000CD42014600230D481BF064FE044678B15A
:10A8500010F10B0F09D10022002301A907481BF0BA
:10A86000AFFE2846FFF7E8FF0446204605B030BD9E
:10A870000349044824F0C9FAF7E700BF601000203C
:10A88000DC030020001D00201FB50023CDE90233AA
:10A89000044B8DF80C0001A801931DF0ACFA05B033
:10A8A0005DF804FB0809050008B500F0FBF8BDE8F9
:10A8B0000840014924F0A9BAA404002007B50848BB
:10A8C00024F056F848B14FF4F0120023CDE90023EC
:10A8D0000448002200231CF099FE03B05DF804FB3D
:10A8E000F8FB0400300F002008B5FEF73BFD10B95F
:10A8F0006FF0850008BDFEF7F7FB38B10138C0B234
:10A900000128F5D8034824F06AFC01E0FFF7D6FFE0
:10A910000020EFE7300F002037B50E4CA5682D2141
:10A92000EB682046984790B92D212B696A4620464E
:10A93000984760B9084C00982378834207D0C0B28A
:10A94000207001F08BFB10B92078FFF79DFF03B05A
:10A9500030BD00BFF8FB0400CC6C002008B50548F2
:10A9600024F006F818B1FFF7A9FF002008BD6FF02A
:10A970001200FBE7F8FB040008B5044801F096F864
:10A98000002818BF6FF0150008BD00BF91A9020094
:10A990000A2804D0024B187002481CF057B87047C0
:10A9A000BB0E0020B4040020014B1878704700BF94
:10A9B000BB0E0020084B1B780B2B4FF001000AD870
:10A9C000984010F4CD6F05D110F4016F0CBF012039
:10A9D0000020704702207047BB0E002010B50948C8
:10A9E000094C1BF053FB206048B1084B08494D222D
:10A9F00002F09CFB20681FF0A1FF002010BD6FF04B
:10AA00001500FBE75A270500103B00201009050040
:10AA10006027050038B504460D46FFF7C5FF0B2833
:10AA20000BD8DFE800F01E1E0A0A1E060A0A0A0AF0
:10AA30000A1EBDE8384001F003B84FF476720023D7
:10AA400009481BF027FF09482146006800232A46D1
:10AA50001FF07EFF044610B103481BF0F5FE2046B0
:10AA600038BD6FF01204FAE7C0100020103B002040
:10AA700001481BF0E9BE00BFC010002007B5064B1F
:10AA80000093064906480A234FF440721BF0E4FF86
:10AA9000002003B05DF804FB24090500A870002025
:10AAA000E81D002000487047E81D002010B5094C43
:10AAB0000A44914200D110BD11F8013B58400309EE
:10AAC0000001E35CC0B2434018091B01205CDBB20B
:10AAD0005840EEE7C5270500014B1B68184700BF2B
:10AAE000C404002030B585B004460D461022002174
:10AAF000684624F0DDFE02238DF802302A46044B1E
:10AB00000193214668461CF011FF05B030BD00BF1F
:10AB1000D9AA020080B505460E46174698461CF095
:10AB20002DFB034624F0E0FEDFF81890044649F8B8
:10AB30000030424630463946A84754F8090001F033
:10AB400089FF00BF080000002DE9F047058B04468F
:10AB50002807904611D4022905F0070540F0CD8062
:10AB600020461DF0D7FF78B10138218B042811D879
:10AB7000DFE800F0C3106D85950001290CBF45F09A
:10AB8000100545F02005258388F31188BFF36F8FEA
:10AB9000BDE8F08701F0070AAA4500F0A68000276B
:10ABA000B9463E46A368002B00F0BD8041F0080185
:10ABB000218388F31188BFF36F8FA168002900F00B
:10ABC000BB800D68002900F0B780D1F804803346BF
:10ABD00052462046C047002D76D02B6829461D4698
:10ABE000F0E701F007035A1F012A1BD8002221F0C9
:10ABF0000701062B276889B2C4E9002209D13B4628
:10AC000003E0628B013262831B68002BF9D141F0B3
:10AC10000201218320461DF07DFF00287BD041F0FA
:10AC2000200177E0042B0AD121F0070189B22183AA
:10AC300020461DF06FFF10B141F020012183218BD0
:10AC400001F0070AAA4550D00027B946AAE72369B0
:10AC500021F0070141F00601062DD3F80090218371
:10AC60002DD1B9F1000F40D041F00801218388F3C4
:10AC70001188BFF36F8F3A492046C84729E021F079
:10AC80000701236941F0040189B2042DD3F804902F
:10AC90002183E6D000273E464FF0040A82E721F0E8
:10ACA0000701236941F0050189B2052DD3F8089009
:10ACB0002183D6D000273E464FF0050A72E70027D1
:10ACC0003E464FF0060A6DE72B4687E7B9F1000FC5
:10ACD000D1D14FF02003EFF3118883F31288BFF333
:10ACE0006F8F238B23F008032383258BEA062ED551
:10ACF00025F01003238305F007056669218B002EDC
:10AD0000BFF66FAF00232768C4E9003321F00701C5
:10AD100041F001012183218B01F0070AAA454FF080
:10AD200000097FF43FAF002F9BD041F00801218341
:10AD300088F31188BFF36F8F002FC7D03D68394665
:10AD40003346524620461DF011FF2F46F4E7AB066E
:10AD50007FF51AAF25F02003238305F00705FFE6F2
:10AD6000998B040008B504464FF02002EFF31183DD
:10AD700082F31288BFF36F8F18F030FF204602F085
:10AD800003F903481DF0D3FC01F0D4FFFCE700BF3A
:10AD9000D527050018F054BF2DE9F7430F460646A6
:10ADA0000821C06ADFF850901EF079F83C68241A38
:10ADB00080463C6004EA0905AC4203D8002003B099
:10ADC000BDE8F08308236A46214630461DF0DAFFCD
:10ADD0000028F4D1694630461EF06BF840B1BDF84A
:10ADE0000230BDF804203C6005EA090513441D4407
:10ADF000A4EB0804E0E700BF0000FFFF2DE9F047E7
:10AE0000044688B000F11407384623F090FEA06A8B
:10AE10008368DB689847E06228B96FF0150528461B
:10AE200008B0BDE8F087A06A8368DB6898470368CC
:10AE3000013B1F2BF1D8A06A216805AA23F040F935
:10AE40000028EAD1A589002DE7D0069BB5FBF3F2D7
:10AE500003FB1255002DE0D1E389012BDDD9E36A14
:10AE6000009593F804904FF0FF334FF0FF323846CF
:10AE70001BF000FCE06A08211EF011F8A846064607
:10AE8000E3891FFA85FA534508D8E389434523D15E
:10AE900038461BF069FC6FF02C05C0E7A1892B0434
:10AEA000891B13FA81F14A460823204600911DF0C0
:10AEB000B7FF78B1694620461DF072FF08F101081E
:10AEC000009908234A4620461FFA88F81DF0A8FF7B
:10AED0000028DAD00135D3E753450BD10099082378
:10AEE0004A46891B20461DF09BFF18B9694620463B
:10AEF0001DF056FF69462046FFF74EFF054618B184
:10AF000038461BF031FC8AE7009B63604FEA134828
:10AF10004FEA0848C4F80880D4E9011399420FD3D6
:10AF2000082301AA20461DF02DFF05460028E7D181
:10AF300001AB13F8012B914533D10135082DF8D120
:10AF400063681B0C1B046946204600931DF028FF14
:10AF5000A38900994A4620461DF062FF051ECFDBFB
:10AF6000636876D006EB03084FF6FF79A389CDF826
:10AF700000801FFA88F29B1B9A422ED3002361683F
:10AF8000002B43D0090C09040091204669461DF0AE
:10AF900007FF009920461DF068FF0546002D74D07C
:10AFA000AEE701A920461DF084FF626810B9921B2C
:10AFB0006260B1E7BDF80850BDF80610E06AC4F859
:10AFC000088029441DF06BFF40449042A060EED100
:10AFD000002DECD06FF01C0568E0082303AA414661
:10AFE00020461DF0CFFE0546002889D103A9204642
:10AFF0001DF05FFF30B1BDF80C304B4502D1BDF8FC
:10B0000010300BB1B044B1E70123B8E720461DF082
:10B010002CFF054600287FF473AF6368264AA18998
:10B0200013400B44A3EB460363601340A360204628
:10B030001EF023F8B1E75B1A4A4620461DF0F0FEE9
:10B04000051EFFF65DAF08D0E26AA36812681344DC
:10B05000A360D4E901318B42EDD86168A38901EB8B
:10B0600046029A429AD1DFF85080A26801EA0803AA
:10B070009A4293D020461DF0F8FE054600287FF442
:10B080003FAF636803EA0803A360A389A288A3EB28
:10B0900046039A4206D038461BF066FB0123237410
:10B0A0000025BCE620461DF0D1FF054638461BF0C2
:10B0B0005BFB002DF2D0B2E60000FFFF2DE9F04F60
:10B0C0001D46037C89B0044689469046002B00F05B
:10B0D000BE80C26A082110461DF0E1FE2946824664
:10B0E00010461DF0DCFEA389A3EB8A039D420746B0
:10B0F00000F2B0801DB1B8F1000F00F0AB806368C2
:10B10000039304AA03A92046DDF80CB01DF009FF43
:10B110000646002864D1BDF810304B4505D0626862
:10B12000039B9A42EDD1E5B95AE004A920461DF0EF
:10B13000C0FE0028F3D0BDF81200BDF8143075B180
:10B140009D420ED14FEA1B41090401442B46424661
:10B1500020461DF032FE002803DC064640E0002BAE
:10B160003ED0002F40D104F1140301934FF0FF3281
:10B170000198DFF8E8B04FF0FF331BF07BFAE3896A
:10B180009E4261D0D4E90123F9188A422FD3ADF849
:10B190001A3006A8FF238DF81E30ADF81890ADF8D0
:10B1A0001C501DF034FEA1682B46424620461DF07F
:10B1B00002FF29468246E06A1DF071FEA268024441
:10B1C000A260BAF1000F07D106A920461DF02DFF9D
:10B1D000002814BF8246AA4601981BF0C5FA5646BD
:10B1E000304609B0BDE8F08F5744BFB2BBE7E06A14
:10B1F00008211DF054FE4FF6FF73ADF81830002102
:10B200008DF81E30A389ADF81C10111802EA0B024C
:10B210001A44101A606006A8ADF81A101DF0F7FD68
:10B2200006A920461DF001FF211D20461DF0B8FD96
:10B23000636803EA0B03A36020461DF01EFF8246ED
:10B240000028C9D101369AE76FF01B0AC4E76FF0F6
:10B250000C06C5E76FF01506C2E700BF0000FFFF50
:10B26000014B0360002070472C09050070B5114B9D
:10B270001C680D46DCB1104B196800238B4202DBC1
:10B280006FF0010070BD224612F8106B864202D0AA
:10B2900001331446F2E7E06810B96FF01200F1E7ED
:10B2A00023F066FB0028F8D02C600020EAE76FF05E
:10B2B0000C00E7E7C80400202C09050070B588B031
:10B2C00005460C46C0B269461646FFF7CFFF002878
:10B2D0001BDB0098C8B1436802938368226801951C
:10B2E000CDE903360023CDE906230593C5681DF09B
:10B2F000FCFF6DB12846084901AA22F0E5FE079837
:10B3000008B9059B236008B070BD6FF01500FAE71F
:10B310006FF01200F7E700BFED920400F0B40C4BA1
:10B320000C4E5F6A0C4BB34203D36FF08500F0BC48
:10B3300070475D68BD4209D31C693CB195F802C0F5
:10B340000579AC4502D12346F0BC18472433EAE71F
:10B35000143B0020F0120020CC1200202DE9F04711
:10B36000134CDFF85080DFF8509005460E46174624
:10B37000444503D36FF08500BDE8F0876268D9F8D3
:10B3800024309A4212D3A36983B1907829798842F4
:10B3900005D13A4631462846BDE8F047184752796C
:10B3A000012A03D13A463146284698472434DFE73C
:10B3B000CC120020F0120020143B00202DE9F041B7
:10B3C0000B4CDFF8308005460E461746444502D345
:10B3D0006FF0850009E063690BB92434F6E73A465B
:10B3E0003146284698470028F7D1BDE8F08100BFD4
:10B3F000CC120020F012002010B5044622F09AFC76
:10B4000010F1780F00D050B9054A20461DF090FF8A
:10B41000D2F8C43023EA0003C2F8C430002010BDC3
:10B42000143B0020024B00221A605A60704700BF94
:10B43000CF3B002070B50B4B0B4CA34201D3002037
:10B4400070BD196A1E7F00220439D5B2AE4201D800
:10B450002433F2E7013211F832508542F5D1012050
:10B46000EEE700BFCC120020F012002008B509481A
:10B470000378C3F341130A3350F823303BB100F192
:10B48000080200F110019847C043C00F08BD1846DC
:10B49000FCE700BF143B002004282DE9F14FDFF842
:10B4A000A09004460F4616D001282DD1DFF88C80DD
:10B4B00098F8B93043B300F071FD1F4D4D4520D2CF
:10B4C000D5F820B04FF0000A2B7F5FFA8AF6B3421E
:10B4D00004D82435F2E7FFF7A5FFE7E70BEBC60634
:10B4E0000AF1010A307922F025FC024630791DF07C
:10B4F0001FFFD8F8C430002A23EA0003C8F8C4307C
:10B50000E2DA002388F8B9300B4D4D4508D30B4BD8
:10B510001B6A6BB13946204601B0BDE8F04F1847B1
:10B52000EB681BB13A462146284698472435ECE79C
:10B5300001B0BDE8F08F00BFCC120020143B00200A
:10B54000F012002073B5C4B263060D468DF80740B3
:10B5500007D02046FFF76EFF78B10D4B93F8BA0085
:10B5600058B10B4E204655B116F06AFBF3691BB17A
:10B570000DF1070108209847012002B070BD16F0B8
:10B5800087FBF369002BF7D00DF107010920F2E7E3
:10B59000143B002073B586788DF8006003794279FA
:10B5A0001C4C43EA0223ADF80230C378304603F066
:10B5B00003038DF804301DF0BBFED4F8C4301842EC
:10B5C00005460BD0304600F0CBFC3046FFF714FFA9
:10B5D00023F08EFA10B996201BF0B6FD684616F0DF
:10B5E0000BFB10F1780F03D010B1002002B070BD3A
:10B5F0009DF8000016F088FB10F1780F01D00028AC
:10B60000F3D1D4F8C43001202B4384F8B900C4F836
:10B61000C430EBE7143B00202DE9F047A34EB3699B
:10B6200004460F461546FBB9237803F01F03012B90
:10B6300000F09D80022B00F0048133BB94F90000E0
:10B640002A686178002834DA062912D008292BD01C
:10B65000D9B901231370517096F8C3305B0043F0E1
:10B660000103137002232AE198470028DCD100204F
:10B670000DE06288100A011F0129844605D90728B8
:10B6800003D8716AD2B20C781CB96FF01500BDE80E
:10B69000F0874E78664503D19A4200F00B81013362
:10B6A0002144F0E70B780AE196F8BA3013700123D1
:10B6B00005E101390829E8D801A353F821F000BFBA
:10B6C00059B702008BB6020067B702008BB60200C2
:10B6D000E5B602008BB602008BB602008BB6020004
:10B6E000F1B60200A07816F075FA0028BFD0CCE7BA
:10B6F0006388756A63BBFFF795FE638886F8BA3086
:10B70000F369002BB3D06A4903209847AFE76B7801
:10B71000042B10D0052B11D0022B04D16F79638834
:10B72000BB4208BF01202B781D442B78002BEED1A3
:10B730000028AAD0DFE795F80380F4E76388BB42CE
:10B74000F1D1B8F1000FEED12846FFF723FFEAE769
:10B75000FF270020B846E8E76388012B95D1002336
:10B7600086F8C33083E76388012B8ED1F8E796F81B
:10B77000BA30D5F800C0002B87D0756AA38894F83A
:10B7800004E02A46107800283FF47FAF5178022960
:10B7900004D192F80480F04500F293800244F1E76E
:10B7A0008CF800208CF80120396060E7154494E0A3
:10B7B0000B2A7FF46AAF00274FF0FF08C146BA4654
:10B7C00006E06B78042B0FD0052B21D02B781D447D
:10B7D0002B78002BF5D1F36913B151460720984718
:10B7E000002F7FF444AF50E795F80280A38895F8C6
:10B7F00003909845EAD163889945E7D1B8F1070FDE
:10B800001CD806EB0803AA4683F8BB900127DDE7A6
:10B81000A3884345DAD1A3784B450AD0AF783846A0
:10B8200000F09EFB3846FFF7E7FDB0FA80F77F098E
:10B83000CCE72846FFF7AEFE0746C7E7AA46002733
:10B84000C4E794F900206378002A18DA002B7FF40B
:10B850001CAF24792D6863060AD02046FFF7EAFD65
:10B8600000283FF412AF96F8BA30002B3FF40DAF2A
:10B870002946204616F02CFA00236B70F2E6012BC5
:10B8800008D0032B7FF401AF6388002B7FF4FDAE5B
:10B89000012103E0618800297FF4F7AEA088FFF75B
:10B8A00051FE00287FF4E3AEEFE600BF143B00201A
:10B8B000CE3B0020022829607FF4F4AE4B883B6029
:10B8C000D5E694F9000062780028BFF671AF002A2F
:10B8D0003FF466AF0A2A7FF4D8AE2A78002A3FF4F4
:10B8E000D4AE697804297FF461AFA9788B427FF4E4
:10B8F0005DAF072B96BF9B19002393F8BB308CF8E4
:10B900000030D4E613B5164C237DF3B9E268A16884
:10B91000019201AB80201DF019FD019AA368134428
:10B92000A360E3689B1AE3606BB962B12369E288A4
:10B930009A4208DD94F8C82093FBF2F102FB113320
:10B940000BB90123237502B010BD00231A46194616
:10B950008020237502B0BDE8104016F0FFB900BF8B
:10B96000143B002030B585B0002302460D460193FC
:10B97000002858D1002935D108220B460DEB0201D1
:10B9800022F0F1F9002804DA802016F059F905B008
:10B9900030BD2A4C029A2260039A626004F1380298
:10B9A000A2609DF90820BDF80E302575002AC4E973
:10B9B00003550ADB802B04D9802016F041F90020C2
:10B9C000E3E713B1C4E90333E1E7FFF74FFD0028D4
:10B9D000DAD0E28823699A42D4BFE260E360FFF7DD
:10B9E00091FFD4E7154CD4E90215002D01AB04DC1E
:10B9F00022F0B9F90028CADAC6E72A4622F0B3F9DC
:10BA00000028D9DB019AA3681344A360E3689B1A5A
:10BA1000E360002BBBD104F13803A360FFF726FDE0
:10BA20000028DCD1B0E78028B1D1044BDA68002AC5
:10BA3000D5D11B7D002BD2D1A9E700BF143B00203C
:10BA4000044B93F8C3300BB122F09CB96FF00C009B
:10BA5000704700BF143B0020054B064A9A62064A15
:10BA6000DA62064A1A63064A58629A6100207047F1
:10BA7000143B002019B602001DB30200BDB3020042
:10BA80005DB3020010B5084B93F8B84034B900F02C
:10BA9000E3F830B1FFF7E0FF204610BD6FF077000C
:10BAA000FBE74FF0FF30F8E7143B00202DE9F341AE
:10BAB000414D04466F6A41484FF0FF324FF0FF336B
:10BAC0001AF0D8FD95F8B860002E6ED13C482C6273
:10BAD000E86116F05DFA16F04BF8041E49DB00F041
:10BAE00081FA041E45DB7B78012B61D1FB79002BA9
:10BAF0005ED0684685F8C830ADF802308DF8046035
:10BB00008DF8006016F078F8041E32DB8027684656
:10BB10008DF8007016F070F8041E2ADB29493046B3
:10BB200016F022FA041E24DB2649384616F01CFAC9
:10BB3000041E1EDB244CDFF89480444520D30020F3
:10BB400016F0E2F8041E14DBD5F8C430802043F070
:10BB50000103C5F8C43016F0D7F8041E09DBD5F888
:10BB6000C43043F48033C5F8C430012385F8B830BD
:10BB7000002412481AF0F8FD204602B0BDE8F0811A
:10BB8000276A0026227FF3B29A4201D82434D4E7F0
:10BB900007EBC30257F83310107916F0E5F90136B8
:10BBA0000028EFD04FF0FF34E3E76FF07704E0E7D1
:10BBB0006FF01504DDE700BF143B0020EC0F002000
:10BBC00099B4020065B90200CC120020F0120020E6
:10BBD00030B51F4B8BB005AA03F1100518685968E2
:10BBE000144603C40833AB422246F7D11B782370B6
:10BBF0001022002101A823F05BFE1222002115482B
:10BC000023F056FE102101A822F0DFFA00281BDDE8
:10BC10000828B8BF0820093801AB0E491A180020BF
:10BC200012F8013F0AAC04EB131403F00F0328339E
:10BC30006B44013014F8144C13F8143C0C700828B1
:10BC40004B7001F10201EBD102480BB030BD00BFD7
:10BC5000FE270500CD6C00202DE9F04F704C87B019
:10BC60004FF0000B00264FF0011AB0463546B146A2
:10BC700023782BB96B4B02349C42F3D1684833E0F4
:10BC80006378052B1BD8DFE803F09003C8901D3BB9
:10BC9000402304A88DF810B0ADF812308DF814B020
:10BCA00022F033F840B1082304A8ADF8123022F096
:10BCB0002CF808B1ADF812B0BDF81230E37123785A
:10BCC0001C44D5E7E378002BF9D1A3787BB108F1C8
:10BCD00001085FFA88F8F2E76B689C4209D02435C6
:10BCE000514B9D42F8D3002007B0BDE8F08F4F4D77
:10BCF000F6E7AB68002BEAD0414620469847E6E7D6
:10BD0000002DF0D000222B7F9A42ECD2296AA07835
:10BD100001EBC2010B79984201D00132F3E7012710
:10BD2000E07800F003008DF81400207994F805C045
:10BD300040EA0C20ADF8120094F902000028FBB292
:10BD400028DA07F110004FF0010C0CFA00F010EAAD
:10BD50000A0F26D143F080008DF8100004A8CDE929
:10BD60000213019221F0D1FFDDE90121039BC0B94B
:10BD70009DF81020A27012F0800F18BF10330A71C6
:10BD800018BFDBB24FF0010214BF9A40BA404AEA32
:10BD9000020A94E70120B84010EA0A0F01D11846C0
:10BDA000DAE70137102FBBD1B7E7032E1DD1FFF71C
:10BDB0000FFF074668B1FBF71FFB102809D1384673
:10BDC000A31C07F1100250F8041B43F8041B904217
:10BDD000F9D123786FF00201E218091B04EB530339
:10BDE000D14213D50136F6B269E7002EF1D1B9F18F
:10BDF000000F3FF478AFA4EB090389F80230C3F3D6
:10BE0000072389F8033089F80480EBE702F801BCC6
:10BE100013F8010902F8020DE2E7A1464FE700BF5F
:10BE200040120020CC120020F0120020CC12002082
:10BE300010B5094B00211A461C78844205D15C6874
:10BE40001CB1482303FB012010BD0131042903F17B
:10BE50004803F1D10020F7E7E03B00202DE9F34152
:10BE600050F8303C10F8346C1033044610D103699C
:10BE700050F8282C990739D5EAB913F0040304D1F6
:10BE80001A46194630461DF061FA002344F8303C4A
:10BE900054F8303C10330BD054E9097554F81C8C1D
:10BEA00022F026FE00284CD02C48214622F0ADFF7F
:10BEB00002B0BDE8F08150F82C1C01AB30461DF0FB
:10BEC00045FA10B16FF01503E0E7019A54F82C3CE5
:10BED000134444F82C3C54F8283C9B1A44F8283C62
:10BEE00054F8243C134444F8243CD1E750F82C1C6B
:10BEF00001AB304615F0AEFF0028E3D1019D54F8A8
:10BF00002C3C2B4444F82C3C54F8283C5B1B44F854
:10BF1000283C54F8243C2B4444F8243C002DB4D055
:10BF2000304616F03BF8B5FBF0F303FB1055002D3F
:10BF3000ABD154F8283C002BA7D0304615F0D2FFE7
:10BF4000A6E744F8200CA4F118001AF07DFC002D9F
:10BF5000AED0424639463046A847A9E720390020EE
:10BF600010B54FF02003EFF3118483F31288BFF371
:10BF70006F8FFFF75DFF50B14368103307D16FF04B
:10BF80008B03436000F13401034822F03EFF84F349
:10BF90001188BFF36F8F10BD2039002070B50F4C92
:10BFA00004254FF02003EFF3118683F31288BFF3CB
:10BFB0006F8F6368103307D16FF08B03084863609D
:10BFC00004F1340122F021FF86F31188BFF36F8F53
:10BFD000013D04F14804E4D170BD00BFE03B002006
:10BFE0002039002070B50A4C0A4E00253146204603
:10BFF00022F0DEFE0122A4F118001146013522F0E4
:10C0000054FE042D04F14804F0D1002070BD00BF9F
:10C01000143C00205DBE02001FB507240294044CAE
:10C020000194BDF81840009420F071FE04B010BDDA
:10C03000BC0E002010B5084C86B024788DF817404F
:10C04000012402940DF117040194BDF820400094DE
:10C0500020F05DFE06B010BDC30E002000B589B013
:10C0600064288DF8070019D80E4B1822187000218B
:10C0700002A823F01DFC0C4B03930DF1070304935E
:10C0800002A901230020ADF8143005F07DFC10F169
:10C09000800F08BF002009B05DF804FB6FF01500A9
:10C0A000F9E700BFC30E0020100A05002DE9F0419A
:10C0B0000F4B1C6805460E461746ACB14FF0FF32D9
:10C0C0004FF0FF330B481AF0D5FA63683246D3F8C5
:10C0D000088029463B462046C047044605481AF0DA
:10C0E00043FB2046BDE8F0816FF00104F9E700BF93
:10C0F000003D0020D80F002000230360044B5A6845
:10C1000012B9C3E90000704710605860704700BF63
:10C11000043D0020014B1860704700BF003D002027
:10C1200030B585B000230546CDE9023301904FF0CC
:10C13000FF330C484FF0FF321AF09CFA0A4B1C6890
:10C140004CB9284600F0CEF8044606481AF00CFB1D
:10C15000204605B030BD636820461B6801A998479A
:10C160002468EDE7D80F0020043D00201FB5CDE97D
:10C17000010103924FF0FF330A484FF0FF321AF0EB
:10C1800079FA094B1C682CB906481AF0EDFA2046DA
:10C1900004B010BD636820461B6801A99847246855
:10C1A000F1E700BFD80F0020043D0020024B002221
:10C1B000C3E90022704700BF043D0020024B00226B
:10C1C000C3E90022FFF7F2BF0C3D002070B51B4C05
:10C1D0001B4E0546B44212D31A4E1B484FF0FF3295
:10C1E0004FF0FF331AF046FA34687CB1286854F8EF
:10C1F000141C143CFBF7EEF8C8B16469F5E721683C
:10C200002868FBF7E7F8A8B11434E3E700226A6175
:10C21000726805F114033AB9C6E9003300240A48EC
:10C220001AF0A2FA204670BD13607360F6E76FF053
:10C230001004F4E76FF01004F4E700BFD8FD040029
:10C2400078FE04000C3D0020D80F00202DE9F743B4
:10C2500007460C4609B100230B601F4DDFF88090A4
:10C2600000264D450FD31D4B1D6885B355F8148C22
:10C2700001AA41463846143D1DF0D4F810B3D6B992
:10C2800014BB2E461EE0D5F8008001AA4146384670
:10C290001DF0C8F850B116B954B92E4606E0316801
:10C2A000002240461DF0BEF80028F5D11435D8E72D
:10C2B000019B2360F1E73168002240461DF0B2F88F
:10C2C0000028DDD16D69D0E7019B2360D9E73046B6
:10C2D00003B0BDE8F08300BFD8FD04000C3D002092
:10C2E00078FE0400F8B5184C184F06460025BC42ED
:10C2F00008D3174B1C682CB3143CB6B9E368E3B9F8
:10C300006469F8E72EB9E3685BB92846143405463A
:10C31000EDE72068002231461DF084F80028F2D1B4
:10C32000F3E79847002DF0D1F0E72068002231466E
:10C330001DF078F80028E1D1E2E79847002D08BF0A
:10C340000546DDE72846F8BDD8FD040078FE040068
:10C350000C3D002038B50C4D0C484FF0FF334FF02A
:10C36000FF321AF087F92B783BB9FFF727FF00F06F
:10C370006DF8044610B901232B70002403481AF00D
:10C38000F3F9204638BD00BFDF6C0020D80F002035
:10C390002DE9F047048FDFF8B0A0013498B0804653
:10C3A0008946A4B200F10806651EADB2B5F5004F8E
:10C3B00047D04A2305AA294630461CF08FFF04F5D2
:10C3C0007F543F34A4B20746214601230DF10B02EE
:10C3D00030461CF083FF002F014603DC002803DCFD
:10C3E0002C46E1E7002816DCB8F83830AB4209D11A
:10C3F00042466B1E22F8383F4FF40041022330467C
:10C40000FEF75CFE294630461CF004FF214630460C
:10C410001CF000FFE4E707F160030DEB03070023C6
:10C4200007F84C3C5246CDF8009003AB05A80396A4
:10C43000ADF810401DF02CF80028D1D018B0BDE8A0
:10C44000F0870020FAE700BFFF9404007FB50123C6
:10C45000694602200193FEF709FF044660BB02AA69
:10C4600001A90220FEF72AFF044610B110F10C0FBB
:10C4700022D10399B1F5803F23D2009A002394681A
:10C480001846084484421AD30133082BF9D10E4DC3
:10C49000A982EB825368AB602846D368EB631DF03A
:10C4A000C8F8044640B9094E6E602846FFF724FEDE
:10C4B00028466E60FFF72EFE204604B070BD9BB28A
:10C4C000E5E76FF02004F7E7143D00202C0500207D
:10C4D000014B1868704700BF40050020F0B50822E6
:10C4E00089B01DF07EFACB6A03930B6B04934B6B00
:10C4F00005938B6B0693CB6B079313466A460C46EA
:10C500000646002711461046CDE9017700971DF039
:10C5100077F93146054630461DF072F9216B0391DB
:10C52000616B0491A16B0591E16B0544CDE90617A0
:10C53000104611461DF064F93146054430461DF0A1
:10C540005FF90544206A0090606A0190A06A029039
:10C55000A06B0690E06B07903046CDE90477039717
:10C560001DF04EF90544606A0090A06A0190E06AEF
:10C570000290A06BD4F834C00490E06BCDF80CC0EE
:10C58000CDE9050C206A079030461DF039F90544C5
:10C59000E06A0090206B0190606B0290206A069028
:10C5A000A06A07903046CDE9047703971DF04CFA56
:10C5B000236B0093636B0193A36B0293E36B039371
:10C5C000636A0693E36A07932D1A082330461DF029
:10C5D0003BFA636B0093A36B0193E36B0293236AB3
:10C5E0000393636A0493A36ACDE90537236B07932A
:10C5F0002D1A082330461DF027FAA36B0093E36B36
:10C60000CDE90137636A0393A36A0493E36A059350
:10C61000636B07932D1A082330461DF015FA2D1A67
:10C6200010D40D4C35B90822314620461DF0E5F9ED
:10C6300001280FD008232246314630461DF004FA67
:10C640002D1AEFE7044A0823314630461DF0D8F88A
:10C650002D18F8D409B0F0BD640A05000449431E42
:10C660000F3013F8012F8A5C1A708342F9D170479A
:10C670001B280500F0B5264E07460C460FCE8DB0A0
:10C6800001AD0FC50FCE0FC596E8070085E807007E
:10C690003846002F38D0002C38D0381F21460246AB
:10C6A00010344B780D781B0443EA0563CD782B4397
:10C6B0008D78043143EA05238C4242F8043FF0D1DF
:10C6C000144C04218A07036916D1C3F30742A55C01
:10C6D0001A0EA25C42EA0562C3F30725DBB2655D70
:10C6E000E35C42EA054242EA032221F003033033CD
:10C6F0006B4453F82C3C534050F8042F0131534005
:10C700002C290361DED101200DB0F0BD2046FBE7EE
:10C7100094FE04001B28050030BFFFF7FDBF00BFDB
:10C72000114B124A2DE9F041D518DFF84C80013D3C
:10C73000B5FBF3F55D430E4B08EB0304013CB4FB82
:10C74000F3F403FB04540E1B07460A49304623F05A
:10C7500087F8701942460021083E23F0A9F87E6749
:10C7600004F10800BDE8F0810100000000000000B5
:10C770000400000078FE040008000000044B9968E3
:10C780009869884203D003494FF080520A6070478D
:10C79000206B002004ED00E0134B9A6A12F0007F3A
:10C7A0009A6A14BF1E201D2012F0807F9A6A18BF5B
:10C7B0001F2012F4002F9A6A18BF212012F4802F34
:10C7C0009A6A18BF222012F4003F9A6A18BF2320E9
:10C7D00012F4803F9A6A6FEA02426FEA12429A624A
:10C7E00018BF2420704700BF00ED00E010B5194BC2
:10C7F0000246986A9C6A10F4805F14BF17201620C6
:10C8000014F4006F9C6A18BF1820A40509D5986B12
:10C81000986A000404D51AB19A6A22F400429A6216
:10C8200019200C4B9A6A12F4806F9A6A18BF1A206A
:10C83000D2050CD49B6A13F4005F18BF1C20054A74
:10C84000936A43F47F43936200230B7010BD1B2057
:10C85000F5E700BF00ED00E010B51C4B0246986AFA
:10C860009C6A10F0100F14BF1120102014F0080F54
:10C870009C6A18BF1220A40709D5586B986A000655
:10C8800004D51AB19A6A22F080029A6213200F4BE3
:10C890009A6A12F0010F9A6A18BF142012F0200F42
:10C8A0009A6A18BF1520D40658BF9B6A074B9A6A2C
:10C8B000920642BF5A6A22F400525A629A6A42F0C1
:10C8C000FF029A6200230B7010BD00BF00ED00E074
:10C8D00070B5444B5B689CB00646C3F30803002563
:10C8E00085F31188BFF36F8F02F07F40B0F17F4F67
:10C8F00011D102F00C0008280DD010074CBF0E46D5
:10C9000001250022033B8DF80720032B05D8DFE823
:10C9100003F01E5C60592E46F3E700249DF80730B3
:10C920009BB96822314602A822F09AFF099B002D8C
:10C9300053D0C3F3080222B96FEA53236FEA4323AB
:10C94000099302A920461DF0A6FF1CB070BD254B1F
:10C95000DA6A9107E1D4DA6A002ADEDBDA6A520089
:10C96000DBD55A69B16942F480725A61BFF34F8FC7
:10C97000BFF36F8F5A6931F8021C22F480725A613A
:10C98000BFF34F8FBFF36F8F4DF60272914209D004
:10C990009A6AD2B242B10DF107010120FFF75CFFA4
:10C9A0000446BBE73468B9E79A6A12F47F4F05D0B2
:10C9B0000DF107010120FFF719FFF1E79B6AB3F5BD
:10C9C000803FAAD3FFF7E8FEEAE70DF10701002058
:10C9D000E4E70DF107010020EDE723F4FF7323F0F6
:10C9E0000103ADE700ED00E0024A536943F0100394
:10C9F0005361704700ED00E0EFF30880EFF3098129
:10CA000001B57246FFF764FF01BD00BF0448002373
:10CA10002021C2180133302B82F80013F9D170475E
:10CA200000E100E0FEF7B6F9202080F31188084805
:10CA30004FF40061401880F30988EFF3148002215D
:10CA4000084380F31488BFF36F8F00F0D5F800001F
:10CA5000608D0020084B9B6883420BD1EFF3058368
:10CA600043B1064B5A6842F080525A605A6A22F427
:10CA700000425A621AF088BB206B002000ED00E0F3
:10CA8000094A0A4993680968D967094998674B6850
:10CA900043F080534B60002383F31188BFF36F8F03
:10CAA0009368D86F704700BF206B00206C2305008F
:10CAB00000ED00E021498A6882F8C1E04FF03000C3
:10CAC0001044EFF3098C80E8F01F1EF0100F03D123
:10CAD00002F1800080EC108A202080F31288BFF3DE
