:020000022000DC
:10700000003A002039A50200A50103000DA50200E9
:107010000DA502000DA502000DA502000000000054
:1070200000000000000000000000000009A20200B3
:107030000DA5020000000000B5A102000DA5020090
:10704000B9A20200B9A20200B9A20200B9A20200CC
:10705000B9A20200B9A20200B9A20200B9A20200BC
:10706000B9A20200B9A20200B9A20200B9A20200AC
:10707000B9A20200B9A20200B9A20200B9A202009C
:10708000B9A20200B9A20200B9A20200B9A202008C
:10709000B9A20200B9A20200B9A20200B9A202007C
:1070A000B9A20200B9A20200B9A20200B9A202006C
:1070B000B9A20200B9A20200B9A20200B9A202005C
:1070C000B9A20200B9A20200B9A20200B9A202004C
:1070D000B9A20200B9A20200B9A20200B9A202003C
:1070E000B9A20200B9A20200B9A20200B9A202002C
:1070F000B9A20200B9A20200B9A20200B9A202001C
:1071000053B94AB9002908BF00281CBF4FF0FF310E
:107110004FF0FF3000F00CB8ADF1080C6DE904CE73
:1071200000F008F8DDF804E0DDE9022304B0704760
:10713000704700BF2DE9F04786468C460846089EFA
:10714000154674461946002B40F0C2808542B2FABB
:1071500082F245D94AB1C2F1200300FA02FC2EFAAC
:1071600003F3954043EA0C0C94404FEA154EA8B245
:10717000BCFBFEF8230C0EFB18CC08FB00F943EA1D
:107180000C43994528D9EB1808F1FF3704D29945EB
:1071900002D9A8F102072B44A3EB0903A4B2B3FB65
:1071A000FEFC0EFB1C330CFB00F044EA0344A0423F
:1071B00014D92C190CF1FF3304D2A04202D9ACF13E
:1071C00002032C44241A43EA07401EB1D440002392
:1071D00034607360BDE8F0874746DDE76346F1E75A
:1071E00092BB431B01214FEA154EAFB2B3FBFEFC2D
:1071F000200C0EFB1C330CFB07F840EA03439845B8
:1072000062D9EB180CF1FF3004D2984502D9ACF1E9
:1072100002002B44A3EB0803A4B2B3FBFEFC0EFB5D
:107220001C330CFB07F744EA0344A7424ED92C1940
:107230000CF1FF3304D2A74202D9ACF102032C4473
:10724000E41B43EA0040C0E7C2F1200320FA03F147
:10725000954090402EFA03F303434FEA154EAFB228
:10726000B1FBFEFC0EFB1C10190C0CFB07F841EAED
:107270000041884504FA02F422D969180CF1FF3064
:1072800004D2884502D9ACF102002944A1EB0801DF
:107290009BB2B1FBFEFC0EFB1C110CFB07F743EA93
:1072A00001439F420ED9EB180CF1FF3104D29F42EB
:1072B00002D9ACF102012B44DB1B41EA004192E709
:1072C0006046E3E76146F7E76046A3E76346B7E752
:1072D000834206D916B9002108467BE7C6E900E0DB
:1072E000F9E7B3FA83F78FB9834201D3724508D81F
:1072F000BEEB020460EB030301209C461EB9002193
:1073000068E73846FAE7C6E9004CF8E7C7F1200C11
:10731000BB4022FA0CF41C432EFA0CF120FA0CF3B9
:10732000B84001434FEA14490EFA07F5B3FBF9F8E8
:107330001FFA84FE09FB18300B0C08FB0EFA43EA17
:1073400000439A4502FA07F240D9E31808F1FF30EA
:1073500004D29A4502D9A8F102002344A3EB0A0300
:1073600089B2B3FBF9F809FB183308FB0EFE41EABA
:1073700003418E452CD9611808F1FF3304D28E45A4
:1073800002D9A8F10203214443EA0040A0FB02987D
:10739000A1EB0E014145CE46434602D306D14D45F1
:1073A00004D2B9EB020E68EB04030138002EA6D01C
:1073B000B5EB0E0261EB030101FA0CFC22FA07F3B4
:1073C0004CEA0303F940C6E9003198E74046C5E7B7
:1073D0004346D9E7014807F0E3B900BF6800002041
:1073E00007B50AF0C7F84FF47A72A0FB020302FB5C
:1073F0000131C00B074A40EA4140106000234FF4BE
:1074000000420548CDE9002307F08EFF002003B0BD
:107410005DF804FB100D0020E003002008B5044BCC
:10742000187800F00BF9BDE8084008F028B800BF54
:107430001C200020044B1A78824202D01870FFF7FB
:10744000EDBF0020704700BF1C20002008B50AF0E7
:1074500091F84FF47A72A0FB020302FB0131C00BDA
:10746000044A40EA41401060BDE808400020FFF7B0
:10747000E1BF00BF100D002008B50AF07BF84FF403
:107480007A72A0FB020302FB0131084AC30B1268A7
:1074900043EA41439B1A47F23052934204DDBDE870
:1074A00008400120FFF7C6BF08BD00BF100D002037
:1074B00030B5194C8DB00022002303A9204606F0F8
:1074C000EDFE08B10DB030BDDDE90415039800F004
:1074D00057F80028EFDBFF238DF81830B5FA85F355
:1074E0005B0907908DF820300AF044F84FF47A7267
:1074F000A0FB020302FB0131C00B40EA4140C90B73
:107500008DE8030006ABCDE90A010FCB00F0A2F82D
:1075100007F0B5FFCFE700BF5C0400201FB583F084
:107520000103CDE9011203930022002301A90448BD
:1075300006F064FE034807F033F905B05DF804FB7C
:107540005C040020140D002010B5044678B10949F0
:10755000094809F086FEA36808491B682046984739
:10756000A3689B680BB120469847002010BD6FF0C0
:107570001500FBE7B1740200140D00201D75020018
:1075800000EB80000844262805D8044B53F820005F
:1075900008B1013870476FF0150070471C1B0300DD
:1075A0002DE9F041134B144EA3EB060807460D4698
:1075B00006EBC106C8F3C708A84506DC0024384618
:1075C0000AF013F82046BDE8F08132683B689A4221
:1075D0000BD13D71736838461B68984701280446F3
:1075E000ECD0022804D00028E9D101350836E3E7C1
:1075F0000024E7E79C240300642403000D4B0E4A9B
:10760000D21A70B4C2F3C7020024A24203DC6FF0A6
:10761000150070BC70471E680568AE4206D15D68F3
:107620008D4203D1E1B270BCFFF7BABF0134083319
:10763000EBE700BF642403009C24030010B504465C
:107640000C2009F0D9FF024A0260047210BD00BF8D
:10765000B81B030084B070B504AC84E80F00202090
:1076600009F0CAFF0446084B44F8083B04AD06463F
:107670000FCD0FC495E8030084E803003046BDE851
:10768000704004B0704700BFBC1B03000268034B8E
:107690009A420CBF08300020704700BFBC1B03009B
:1076A00010B504460C2009F0A7FF024A02600472DC
:1076B00010BD00BFC41B030082B038B504A981E827
:1076C0000C000546114806F08FFB0446A0B16B681C
:1076D000012B0CD0022B05D0A3B9BDE8384002B075
:1076E00007F0EABE07F0EFFE00282046F5DCBDE813
:1076F000384002B007F0D9BE6FF00400BDE8384052
:1077000002B070476FF08500F8E700BF6022030009
:1077100082B010B502A981E80C0004460B4806F0BF
:1077200063FB78B16368022B04D00020BDE81040F1
:1077300002B0704707F0C7FE0028CCBF0020012030
:107740006060F2E76FF00400F0E700BF6022030022
:107750000D4A52F82030013342F820300B4A012301
:10776000117883400B430A490978DBB2137023EA8E
:1077700001030849084A097850780B43181A5370D6
:1077800018BF0120704700BF240D00201F200020DB
:107790001D2000201E2000209D03002010B5114A4E
:1077A00052F82030002B19DD013B42F820300E4A00
:1077B0002BB913780121814023EA010313700B4890
:1077C0000B4B047810780B4A5978127820EA0400A1
:1077D00010435870401A18BF012010BD6FF01500FB
:1077E000FBE700BF240D00201F2000201D200020EB
:1077F0009D0300201E20002010B5084B084A187079
:10780000084B51781C78084B1B7823EA0403184373
:107810005070401A18BF012010BD00BF1E2000206C
:107820009D0300201D2000201F200020074B002268
:107830001A70074B074A1978074B50781B7823EAD0
:107840000103181A537018BF012070471E20002032
:107850001D2000209D0300201F200020A0F1E00338
:10786000072B03D82030C0B2FFF772BF064B0622A9
:1078700013F8011F19B1013AFAD1002070471870AE
:107880000028F8D0F9E700BF9F030020A0F1E00333
:10789000072B10B404D8203010BCC0B2FFF77EBF55
:1078A0000023064A194612F8014F0133A04208BFCF
:1078B0001170062BF7D1002010BC70479F030020E9
:1078C00010B50849002301EB4302B2F8014024B18E
:1078D0000133062BF7D1002010BDA2F801000028CB
:1078E000F6D0F8E79003002030B50023074C194686
:1078F00004EB43020133B2F80150854204BF5170DA
:107900009170062BF4D1002030BD00BF9003002001
:10791000004870479D0300200048704790030020F6
:107920002DE9F0410B4E337883B10B4CDFF82C80FE
:10793000002542F20F7720464146013509F0BFFC91
:107940000A2D44F8207C04F15804F4D10020307052
:10795000BDE8F081A60300209005002007F6020094
:1079600010B5064A0023114652F8044B14B941F8E9
:10797000230010BD0133282BF6D1FAE7440D002077
:10798000F0B5C169037E8A7C93B00AB1032B2ED077
:10799000023B0022012BD0E90467CDE903220568F0
:1079A0000692059225D84B68039343680493CDE96A
:1079B0000867079506AB0FCB0AAC84E80F00CDE94A
:1079C0000C670B9594E80F000EAD85E80F00039847
:1079D00006F00AFA58B183689C6844B112AB13E907
:1079E00003008DE8030003A895E80C00A04713B03E
:1079F000F0BD8B68039383680493024BC3E902676D
:107A00001D60D4E7000000202DE9F843037E002B21
:107A100066D1384C2368834262D1C3695A7C032AF9
:107A200025D8DFE802F0020D1D5F04291FD8DFE82A
:107A300001F01C031E051C00022217E0032215E0C2
:107A4000042914D801A252F821F000BF6B7A020079
:107A50006F7A0200397A02003D7A02006B7A0200E6
:107A60000329EBD011F0FB0F01D101220276027E37
:107A7000B2B3596900290DDD456D6A1C0AD0143373
:107A8000002253F8046FAE4204D001329142F8D183
:107A90000123037600232360FFF772FFD4F80080F0
:107AA000B8F1000F1CD1144FDFF85090282657F87A
:107AB000045BADB1236847F8048C23B14FF4A47084
:107AC000002107F0DBF92846FFF7E0FD10B9284652
:107AD00000F064FD49462846FFF790FD013EE6D1DF
:107AE000BDE8F8830129A7D0BFD903390129BCD942
:107AF000BDE700BFE40D0020440D0020301C030052
:107B000082B02DE9F84F0AA9054681E80C0000680B
:107B100006F06AF9304A1468034694B9D5E9019A27
:107B2000DDE90CEC0B992D4E582742F20F7B07FB39
:107B300004F5A81956F80580D84507D001340A2C59
:107B4000F5D1BDE8F84F002002B070475F68715171
:107B50000023C0E9019AC0E904EC03764FF0FF333B
:107B60004365C76110603A7C1D4B12B91A68914297
:107B70000CD1D3E90223F9688A1843EBE1739645E7
:107B80007CEB030302DA0421FFF73EFF582303FBDB
:107B9000046421693C680C4409F0ECFC4FF47A72EF
:107BA000A0FB020302FB0131C30B43EA4143E11A8C
:107BB00021EAE17140F2E7304FF47A72002300EBE2
:107BC000C1304914FFF79CFA203502460B46701964
:107BD00006F04EFEB5E700BFE40D00207005002062
:107BE000000000202DE9F0470546FFF74FFD002873
:107BF0006BD02846FFF74AFD4A4ED0F80480044671
:107C00000A2742F20F79336898450CD04B450AD0C9
:107C1000F3699B7C3BB1337E032B04D10223337683
:107C20003046FFF7ADFE013F06F15806EBD13E4F5F
:107C3000386810B90020BDE8F087C369227AD97C82
:107C4000914204D0426D013204BF6268426501680E
:107C500062689142EED01968D0E904238A1843EB98
:107C6000E173D4E90461B2428B410DDB267A96B10F
:107C70002846FFF775FE217A3868C1F10201C9B2C2
:107C8000FFF7C2FE0220D6E70321FFF7BDFE3B68E7
:107C9000002BCFD0EAE7D4F80490DFF89080B2460A
:107CA00058F8040B70B1FFF7F1FC30B14368994507
:107CB00003D1037A002B18BF06460AF1010ABAF174
:107CC000280FEDD1002ED3D1B4E7284600F066FC92
:107CD0000028AFD0284600F061FC837A9BB143684E
:107CE000E03B072B02D80378072B0CD0104BD0E9D0
:107CF0000412D3E902648E429441BEBFC3E902126A
:107D00004FF000441C60084B1B68002B92D0436866
:107D1000E03B072B8ED80378072B8BD12846FFF743
:107D20001FFEAFE770050020E40D0020440D002089
:107D30000000002082B02DE9F0412A4E06A981E81A
:107D40000C000024582202FB04F0851931588B42A4
:107D50003FD12030304409F0BEFAEB691968D5E90B
:107D600004238A1843EBE17308998A42099A9341E4
:107D7000804603DA03212846FFF746FE582707FB13
:107D8000046700212846FFF73FFEFB699B7C53B147
:107D90003B7E032B07D1284607F046FC01232846EB
:107DA0003B76FFF7EDFD284607F03EFC18F1770F14
:107DB0004FF058031DBF5C4342F20F72331903FBAF
:107DC000046317BF3251012200221A7683F8502033
:107DD00002E001340A2CB6D1BDE8F041002002B027
:107DE000704700BF70050020124B2DE9F043044698
:107DF000002005221D468046D3F800E0BEF1000FAA
:107E000015D0D3E902C7644571EB0706BBBF4FEA43
:107E1000001905EB0016C3F80080C6E902C7BCBF15
:107E200045F809E00130013A03F11003E4D1BDE85F
:107E3000F08300BF1809002070B50C4D55F8040BF5
:107E4000002680B145F8046C07F01CFB012455F8AE
:107E5000040B30B145F8046C013407F010FB042C1E
:107E6000F5D1204670BD0446FBE700BFFC100020A2
:107E70002DE9F041154E00214FF0140E036999428F
:107E800022DA50F82130222B1EDC0EFB036802465A
:107E9000002458F8045B35B903EB83032344013114
:107EA00046F82320EAE72F69D2F810C0674508DBBF
:107EB00004D1AF6AD2F828C0674502DB48F8042C29
:107EC0002A460134052CE4D1BDE8F0813C0E0020A7
:107ED00008B50649064809F0F2F90648FFF7C8FF59
:107EE0000548FFF7C5FF002008BD00BF79830200E9
:107EF000E8080020DC000020A80000202DE9F04167
:107F00003F488EB009F0E7F900233E4A194652F87F
:107F1000230038B93C4F3E6856B90EB0BDE8F04179
:107F2000FFF78ABF42F823100433142BEFD1F1E797
:107F300036490024142000FB04F303EB010ECA5859
:107F4000002A44D13248CE500368324D01330360D9
:107F5000336928469046934241DC9D0000EB830242
:107F60004FF0000C6842042B41D1142303FB041191
:107F700006AC4868FFF78AFBD6F828E00569CDE92A
:107F800003E500234FEAE57C0293CDF814C002AB71
:107F90000FCB06F1140884E80F00CDE907E5CDF812
:107FA00024C094E80F000AAD85E80F00706905F061
:107FB0001BFF88B183689C6874B10EAB13E90300A2
:107FC0008DE80300404695E80C00A04704E001342A
:107FD000042CB0D1FFF730FF00233B609DE7D5F8BC
:107FE00000C04EF804CF45F8048B0132B3E71568A2
:107FF0000133002DB9D0155042F804CBB3E700BFD0
:10800000E808002018090020F8100020EC0D0020DE
:10801000E80D0020FC100020F8B50024284B6FF07C
:1080200000452246196869B1D3E90201A84271EB03
:10803000040602F10102BCBF05460C46052A03F105
:108040001003EFD11F4ED6E90023A34208BFAA4276
:1080500032D009F08FFA4FF47A77A0FB070307FBC1
:108060000131C30B43EA4143AB424FEAD131A14155
:1080700023DA09F07FFAA0FB070307FB0131C00BED
:1080800040EA4140281A64EBD131C90341EA50412A
:1080900040F2E733C003C01841F100014FF47A7297
:1080A0000023FFF72DF802460B46074806F0E0FBD9
:1080B0000028A8BFC6E90054F8BD00200146E4E747
:1080C00018090020E0080020E80800202DE9F04F02
:1080D00095B00490FFF7DAFA054620B90025284646
:1080E00015B0BDE8F08F047A002C00F0AA809C4FF8
:1080F000DFF870823C68D0E90469002C4DD14568F6
:1081000007F038FB142303FB058221466FF02E0C89
:1081100052F8043B83B193F9305001352ED0D3F897
:108120002CE003F12F05ACEB030A0AEB0508F04540
:1081300020DB01310529EBD1002CCFD0FFF76CFFFC
:10814000894B3968184600221D4650F8046B002EF2
:1081500060D00132042AF8D1002544B1012C08690D
:108160004FF0000268D1824259DB804B1960FFF763
:10817000C5FEB4E715F9018F8045D6D14FEA041E3C
:1081800007EB041547F80E301B6A13EB060E49EB9C
:10819000E373C5E902E30134CBE730464946FFF714
:1081A00023FE6B6800242546264603EB830C320130
:1081B00007EB0613B9580CEB050258F8222001B161
:1081C0003AB923460022042BB8DC190101337A5056
:1081D000F9E7D1F828E0906A86450DD10FCB01353B
:1081E00007EB041E052D8EE80F0004F1010406F1D3
:1081F0000106E6D0052E05E009691369994203DD01
:108200000135052DD3D1DCE701DA0136F2E78645E9
:10821000FBDDF5E7049845F8220002259DE753F8B9
:10822000044B002C3FF45BAF01329CE753F8044B46
:10823000002C3FF454AF01328242F7DB4B4B196004
:108240004DE7FFF75BFE6B6806932B69484D494F7E
:1082500005900293AB463B689C4231DB059B012BAA
:108260007FF73CAF049807F00AF9022537E759F881
:10827000040F00B30793FFF709FA069B4268934285
:10828000079B1AD1D9F8000009F0AFF90023C9F80B
:10829000003001230AF1010A2E6832699245E6DBBB
:1082A0001435002B5AD096F824308BB1B8F1000F5A
:1082B00010D1012513E70390ECE74FF00008E9E740
:1082C00000234FF00108A9469A46CDF80C80E3E759
:1082D000039B63B300230893D6F828E0029BCDE903
:1082E00009E34FEAE37CCDF82CC008AB0FCB0CAD13
:1082F00085E80F0006F11409029BCDF834E0CDE9C2
:108300000E3C95E80F000DF1400A8AE80F007069F5
:1083100005F06AFD58B18368DD6845B114AB13E917
:1083200003008DE8030048469AE80C00A847B8F11E
:10833000000FBED0396801398C42396006D0142252
:1083400002FB01B102FB04B007F0D7FF386814222A
:10835000002102FB00B007F0DBFFAAE701347AE757
:10836000180900203C0E0020FC100020F81000200E
:10837000EC0D0020E80D002038B5124CD4E9003295
:1083800013431DD009F0F6F803460D46D4E9000169
:108390004FF47A74A3FB043204FB0522DB0B43EA9F
:1083A000424383424FEAD2328A4109DBFFF71CFD88
:1083B000012801DCFFF7A2FDBDE83840FFF72CBE25
:1083C00038BD00BFE008002001281FB52DD828BB0C
:1083D00009B3174B1A68012383401343144C9A4284
:1083E000236018D08DF800008DF8011009F0C2F854
:1083F0004FF47A72A0FB020302FB0131C00B40EA8A
:108400004140C90BCDE9020104AB13E90F0000F0B4
:1084100093F807F034F8002004B010BD044B1A683C
:108420000029D8D122F00203D8E76FF01500F3E756
:1084300098110020014B196807F092B9981100209B
:108440002DE9F04F15464FF4D2729A464A430C2359
:1084500003FB0522214B1344884693E807008DB0A7
:1084600005AC84E80700DDE9166705F0BDFC814630
:1084700070B3CDE90885CDE90A67059805F0B4FC2D
:108480008368D3F804B0BBF1000F09D00CAB13E93B
:108490000300DDE908238DE803002046D847A0B992
:1084A000D9F808301B78022B14D8CDE90885CDE91E
:1084B0000A670CABCDF808A013E9030042468DE82B
:1084C00003002B46204607F05EF90DB0BDE8F08FA3
:1084D0000120FAE76FF08500F7E700BF741C030086
:1084E0002DE9F34EDDE90AAB114D81460E461446E7
:1084F0001AB1104B1B6845F82130012755F826109A
:10850000384607F02DF938B927B96FF0850002B069
:10851000BDE8F08E0027F1E7CDE900AB23463246F7
:1085200039464846FFF78CFF0028F0DDECE700BF36
:108530000C110020981100207FB56C4684E80F00D4
:10854000182009F059F80546054B45F8083B064642
:1085500094E80F0085E80F00304604B070BD00BFFE
:10856000BC1F030084B070B504AC84E80F00202069
:1085700009F042F80446084B44F8083B04AD0646AF
:108580000FCD0FC495E8030084E803003046BDE832
:10859000704004B0704700BFC41F03000268034B63
:1085A0009A420CBF08300020704700BFC41F030070
:1085B000024B1870024806F0F3B800BFA703002072
:1085C0001001002008B5044800F008FF002818BF7B
:1085D0006FF0150008BD00BFB1850200084B1B7885
:1085E0000B2B4FF001000AD8984010F41A7F05D1E8
:1085F00010F4016F0CBF012000207047022070476B
:10860000A703002007B5064B0093064906480A2336
:108610004FF4407206F0CAF8002003B05DF804FB86
:10862000C81F030080200020680900200148FEF7D1
:108630008BBF00BF04190300014B1B68184700BF24
:1086400020010020014B1860704700BF200100206E
:1086500007B50B46002102460091034800F014F9CB
:1086600003B05DF804FB00BF398602002DE9F04736
:10867000058B04462807904611D4022905F007050A
:1086800040F0CD80204607F024F978B10138218BE5
:10869000042811D8DFE800F0C3106D85950001298A
:1086A0000CBF45F0100545F02005258388F311889F
:1086B000BFF36F8FBDE8F08701F0070AAA4500F00D
:1086C000A6800027B9463E46A368002B00F0BD8077
:1086D00041F00801218388F31188BFF36F8FA168EF
:1086E000002900F0BB800D68002900F0B780D1F8A8
:1086F0000480334652462046C047002D76D02B6872
:1087000029461D46F0E701F007035A1F012A1BD82E
:10871000002221F00701062B276889B2C4E9002254
:1087200009D13B4603E0628B013262831B68002B58
:10873000F9D141F002012183204607F0CAF8002850
:108740007BD041F0200177E0042B0AD121F0070112
:1087500089B22183204607F0BCF810B141F0200116
:108760002183218B01F0070AAA4550D00027B94682
:10877000AAE7236921F0070141F00601062DD3F88D
:10878000009021832DD1B9F1000F40D041F00801B4
:10879000218388F31188BFF36F8F3A492046C84779
:1087A00029E021F00701236941F0040189B2042D79
:1087B000D3F804902183E6D000273E464FF0040A08
:1087C00082E721F00701236941F0050189B2052DF7
:1087D000D3F808902183D6D000273E464FF0050AF3
:1087E00072E700273E464FF0060A6DE72B4687E703
:1087F000B9F1000FD1D14FF02003EFF3118883F3CB
:108800001288BFF36F8F238B23F008032383258BFC
:10881000EA062ED525F01003238305F007056669C7
:10882000218B002EBFF66FAF00232768C4E9003309
:1088300021F0070141F001012183218B01F0070A9A
:10884000AA454FF000097FF43FAF002F9BD041F0C5
:108850000801218388F31188BFF36F8F002FC7D0E1
:108860003D68394633465246204607F05EF82F46AB
:10887000F4E7AB067FF51AAF25F02003238305F05C
:108880000705FFE657F902002DE9F04F8DB01D46B0
:10889000531E8246019103934FF00009039B5878C1
:1088A000252803F1010419D11E4600204FF0FF389E
:1088B000023603460290444631780396392954D84B
:1088C0001F2914D8002900F0F08101992520D047F4
:1088D00001993078D04709F10209DFE7002800F05C
:1088E000E4810199D04709F101090394D6E7A1F188
:1088F0002002192AE9D801A757F822F06589020059
:10890000CB880200CB88020065890200CB88020078
:10891000E5890200CB880200CB880200CB880200E8
:10892000CB880200318A020065890200CB880200F0
:10893000458A0200F1890200CB880200FF8902000B
:108940001F8A02001F8A02001F8A02001F8A02007B
:108950001F8A02001F8A02001F8A02001F8A02006B
:108960001F8A020008460136A6E7582900F0EE806B
:10897000A1F16302D7B2172FA7D8172AA5D801A74C
:1089800057F822F0F38B02006B8A0200CB880200BA
:10899000CB880200CB8802004B8A02006B8A02005F
:1089A000CB880200CB8802004B8A0200CB880200F1
:1089B000CB880200CB880200278B0200CB88020004
:1089C000CB880200C78B0200CB8802006B8A0200B2
:1089D000CB880200CB880200278B0200CB880200E4
:1089E0004B8A020001992520D04709F1010955E77A
:1089F000029A02F0FE0202924FF00008B3E7002C48
:108A00000DDAB8F1000F0DDA029A002A00F0458164
:108A100024EAE4740A2202FB0414303CA3E7B8F110
:108A2000000FF5DB0A2202FB0812A2F130089AE7D8
:108A3000B8F1000F55F8042B80F23181002A80F242
:108A400030815442022202928DE7682903D1682BBB
:108A500006D1482387E76C2902D16C2B00F02381D3
:108A6000002B7FF432AF0B467DE77A2B06D17529B8
:108A700055F8046B14D14FF0000B0CE06C2BF6D0C2
:108A80004C2BF4D1073525F007037529D3E9006B8A
:108A900003F1080506D120283ED1864F013C09E0AC
:108AA0004FEAE67BBBF1000FF5DA7642824F6BEBC3
:108AB0004B0B013C0DF12D0305930023049330462D
:108AC00059460A220023FEF71BFB049B03F1FF3CDF
:108AD000CDF810C0DDF814C030320CF8012DCDF8FF
:108AE00014C0B4465A46BCF10A0F72F100020646A1
:108AF0008B46E4D2C3F1010B30330DEB0306B8F122
:108B0000000FA6F104066DDA029BD9077CD4A8EB0E
:108B10000B03A4EB0B0413E02B280ABF674F684F2D
:108B200004F1FF34C6E770290FD155F8042B002358
:108B3000FAB9644E053C6FF004034FF0050B604F2B
:108B4000029A92076FD4A04665E078216C2B03D17E
:108B500055F8042B002308E04C2BF9D1073525F0FC
:108B600007031D465B6855F8082B232825D1880686
:108B700021D5554F023C01F06001A1F1390B0DF1F7
:108B80002D0E002602F00F01092988BF594430310B
:108B90000EF8011D102A4FEA121141EA03714FEA43
:108BA000131073F1000306F1FF3C08D2C6F1010B6C
:108BB00006F13003A1E7454FDCE7414FDBE76646AE
:108BC0000A460346DEE755F8046B304607F082FBA1
:108BD000B8F1000F834602DB4045A8BFC346384FBB
:108BE0004FF00008A8EB0B03002B92DDA4EB080468
:108BF000A6E755F8043B8DF81830013C4FF0FF33E1
:108C00004FF0010B06AE9AE7A046EBE702930199FD
:108C10002020D047029BB8F10108F7D524EAE4727E
:108C2000013C9144A41AB84606E0049302920199CB
:108C3000D047029A049B9046424612F8010B002846
:108C4000F3D11A46013A15D5002BACBFC7EB030789
:108C50007F425B46013B15D5BBF1000FA8BF5F44C7
:108C60004F442646013E14D5002CA8BF3F1907EB00
:108C7000080913E60493029201993020D047049B1F
:108C8000029ADFE70293019916F8010BD047029B85
:108C9000E0E701992020D047E4E70122D3E690469F
:108CA00061E614465FE64C235DE648460DB0BDE83C
:108CB000F08F00BF1F2303001D23030021230300A7
:108CC0003924030029230300232303002623030060
:108CD00008B54FF02002EFF3118382F31288BFF33F
:108CE0006F8F01F055FD034806F0CBFD01F0C0F990
:108CF000FCE700BF2F23030003F07CBAF0B40C4B59
:108D00000C4E5F6A0C4BB34203D36FF08500F0BC8E
:108D100070475D68BD4209D31C693CB195F802C03B
:108D20000579AC4502D12346F0BC18472433EAE765
:108D30009C1100206C050020480500202DE9F0471B
:108D4000134CDFF85080DFF8509005460E4617466A
:108D5000444503D36FF08500BDE8F0876268D9F819
:108D600024309A4212D3A36983B19078297988423A
:108D700005D13A4631462846BDE8F04718475279B2
:108D8000012A03D13A463146284698472434DFE782
:108D9000480500206C0500209C1100202DE9F041C1
:108DA0000B4CDFF8308005460E461746444502D38B
:108DB0006FF0850009E063690BB92434F6E73A46A1
:108DC0003146284698470028F7D1BDE8F08100BF1A
:108DD000480500206C05002007B583788DF8003029
:108DE0000379427943EA0223ADF80230C37868463A
:108DF00003F003038DF8043002F096F810F1780FB9
:108E000004D018B1002003B05DF804FB9DF8000009
:108E100002F012F910F1780F01D00028F2D1024BC4
:108E2000012083F8B900EEE79C11002002480822D7
:108E3000002107F06DBA00BF5712002070B50B4B30
:108E40000B4CA34201D3002070BD196A1E7F002283
:108E50000439D5B2AE4201D82433F2E7013211F819
:108E600032508542F5D10120EEE700BF48050020D1
:108E70006C05002008B509480378C3F341130A3391
:108E800050F823303BB100F1080200F1100198477F
:108E9000C043C00F08BD1846FCE700BF9C1100206E
:108EA00004282DE9F047DFF88C8004460E4613D1E4
:108EB000FFF7BCFF204B93F8B930ABB100F096FD43
:108EC0001E4D454526D2D5F8209000272A7FFBB2BB
:108ED0009A4217D82435F4E7052810D1164B93F899
:108EE000B9300BB100F082FD144D454517D3124B3C
:108EF0001B6AE3B131462046BDE8F0471847012818
:108F0000F2D1D7E709EBC3030137187902F0BEF8B5
:108F10000028DBDA084B002283F8B920E4E7EB688D
:108F20001BB132462146284698472435DDE7BDE887
:108F3000F08700BF6C0500209C1100204805002030
:108F400073B5C4B263060D468DF8074007D02046BE
:108F5000FFF774FF78B10D4B93F8BA0058B10B4E80
:108F6000204655B102F004F8F3691BB10DF1070179
:108F700008209847012002B070BD02F021F8F36983
:108F8000002BF7D00DF107010920F2E79C1100201A
:108F90002DE9F047A44EB36904460F461546FBB9C8
:108FA000237803F01F03012B00F09D80022B00F0BB
:108FB000078133BB94F900002A686178002834DA0D
:108FC000062912D008292BD0D9B90123137051706A
:108FD00096F8C3305B0043F00103137002232CE1C9
:108FE00098470028DCD100200DE06288100A011F9C
:108FF0000129844605D9072803D8716AD2B20C78B2
:109000001CB96FF01500BDE8F0874E78664503D1B6
:109010009A4200F00D8101332144F0E70B780CE116
:1090200096F8BA301370012307E101390829E8D80E
:1090300001A353F821F000BFD19002000390020079
:10904000DF900200039002005D9002000390020096
:10905000039002000390020069900200A07801F0E2
:1090600051FF0028BFD0CCE76388756A63BBFFF768
:10907000DDFE638886F8BA30F369002BB3D06B4904
:1090800003209847AFE76B78042B10D0052B11D045
:10909000022B04D16F796388BB4208BF01202B7873
:1090A0001D442B78002BEED10028AAD0DFE795F8DD
:1090B0000380F4E76388BB42F1D1B8F1000FEED131
:1090C0002846FFF789FEEAE7FF270020B846E8E7D1
:1090D0006388012B95D1002386F8C33083E763882A
:1090E000012B8ED1F8E796F8BA30D5F800C0002BE6
:1090F00087D0756AA38894F804E02A46107800287F
:109100003FF47FAF5178022904D192F80480F045F2
:1091100000F295800244F1E78CF800208CF80120E1
:10912000396060E7154496E00B2A7FF46AAF0027A8
:109130004FF0FF08C146BA4606E06B78042B0FD00B
:10914000052B21D02B781D442B78002BF5D1F3690A
:1091500013B1514607209847002F7FF444AF50E7E2
:1091600095F80280A38895F803909845EAD1638822
:109170009945E7D1B8F1070F1FD806EB0803AA46B7
:1091800083F8BB900127DDE7A3884345DAD1A378B4
:109190004B450DD0AF78384600F00AFC384601F058
:1091A00075FF10F1780FEDD0B0FA80F77F09C9E7AD
:1091B0002846FFF711FE0746C4E7AA460027C1E785
:1091C00094F900206378002A18DA002B7FF419AF95
:1091D00024792D6863060AD02046FFF72FFE002869
:1091E0003FF40FAF96F8BA30002B3FF40AAF294690
:1091F000204601F005FF00236B70EFE6012B08D03D
:10920000032B7FF4FEAE6388002B7FF4FAAE0121BE
:1092100003E0618800297FF4F4AEA088FFF790FE98
:1092200000287FF4E0AEECE69C11002056120020EE
:10923000022829607FF4F2AE4B883B60D3E694F9B4
:10924000000062780028BFF66FAF002A3FF464AFD9
:109250000A2A7FF4D6AE2A78002A3FF4D2AE697883
:1092600004297FF45FAFA9788B427FF45BAF072BB3
:1092700096BF9B19002393F8BB308CF80030D2E6E0
:1092800013B5134C237DCBB9E268A168019201AB01
:10929000802006F092FE019AA3681344A360E3685D
:1092A0009B1AE36043B93AB12369E2889A4203DD2D
:1092B0009B0601D10123237502B010BD00231A467D
:1092C00019468020237502B0BDE8104001F004BFAC
:1092D0009C11002030B585B0002302460D46019355
:1092E000002858D1002935D108220B460DEB020188
:1092F00007F05BF8002804DA802001F039FE05B0A1
:1093000030BD2A4C029A2260039A626004F138024E
:10931000A2609DF90820BDF80E302575002AC4E929
:1093200003550ADB802B04D9802001F021FE0020A8
:10933000E3E713B1C4E90333E1E7FFF79BFD00283E
:10934000DAD0E28823699A42D4BFE260E360FFF793
:1093500097FFD4E7154CD4E90215002D01AB04DCCE
:1093600007F023F80028CADAC6E72A4607F01DF8F6
:109370000028D9DB019AA3681344A360E3689B1A11
:10938000E360002BBBD104F13803A360FFF772FD4B
:109390000028DCD1B0E78028B1D1044BDA68002A7C
:1093A000D5D11B7D002BD2D1A9E700BF9C11002095
:1093B000054B064A9A62064ADA62064A1A63064A68
:1093C00058629A61002070479C110020918F020022
:1093D000FD8C02009D8D02003D8D02002DE9F341C0
:1093E0000446354D35484FF0FF324FF0FF3304F05F
:1093F000AFFF95F8B860002E5BD131482C62E86170
:1094000001F084FF01F040FD041E36DB00F012FB8A
:10941000041E32DB40236846ADF802308DF804604C
:109420008DF8006001F080FD041E26DB8027684671
:109430008DF8007001F078FD041E1EDB21493046D6
:1094400001F050FF041E18DB1E49384601F04AFFA8
:10945000041E12DB1C4CDFF87480444514D300203A
:1094600001F0EAFD041E08DB802001F0E5FD041E8A
:1094700003DB012385F8B8300024104804F0E2FF34
:10948000204602B0BDE8F081276A0026227FF3B2B1
:109490009A4201D82434E0E707EBC30257F83310AF
:1094A000107901F01FFF01360028EFD04FF0FF3494
:1094B000E3E76FF07704E0E79C1100204804002008
:1094C000A18E0200D5920200480500206C05002004
:1094D00010B50A4B93F8B8404CB900F055F848B1B4
:1094E000FFF766FF2046BDE81040FFF777BF6FF03B
:1094F000770010BD4FF0FF30FBE700BF9C1100204C
:1095000030B51F4B8BB005AA03F1100518685968D8
:10951000144603C40833AB422246F7D11B782370AC
:109520001022002101A806F0F3FE122200211548A6
:1095300006F0EEFE102101A807F02DF800281BDD33
:109540000828B8BF0820093801AB0E491A180020B6
:1095500012F8013F0AAC04EB131403F00F03283395
:109560006B44013014F8144C13F8143C0C700828A8
:109570004B7001F10201EBD102480BB030BD00BFCE
:1095800058230300202000202DE9F04F644C85B0C3
:1095900000264FF0011BB1463546B24623782BB961
:1095A000604B02349C42F3D15D481CE06378052B8C
:1095B00005D8DFE803F07B04037B0725A246237868
:1095C0001C44EBE7E378002BF9D1A37873B109F1E0
:1095D00001095FFA89F9F2E76A68944209D02435F3
:1095E0009D42F9D3002005B0BDE8F08F4E4D4F4BA2
:1095F000F6E7AB68002BEAD0494620469847E6E7F5
:10960000002DEFD0002301212A7F9342EAD22A6A5B
:10961000A77802EBC3021079874201D00133F3E748
:109620000127E07800F003008DF80C00207994F811
:1096300005C040EA0C20ADF80A0094F902000028A9
:109640005FFA87F827DA07F1100001FA00F010EA54
:109650000B0F27D148F080008DF8080002A8CDE953
:10966000003206F08AFEDDE900320121D0B99DF812
:109670000830A37013F0800F18BF08F110081371A1
:1096800018BF5FFA88F80B460CBFBB4001FA08F31D
:109690004BEA030B93E701FA07F010EA0B0F01D135
:1096A0004046D9E70137102FBBD1B7E7032E1DD1B4
:1096B000FFF726FF074668B106F00CFE804648B16A
:1096C0001B4806F007FE804504D142463946A01CDF
:1096D00006F013FE23786FF00201E218091B04EB79
:1096E0005303D14213D50136F6B268E7002EF1D10B
:1096F000BAF1000F3FF476AFA4EB0A038AF8023008
:10970000C3F307238AF803308AF80490EBE74FF09D
:10971000000002F8010C13F8010902F8020DE0E75D
:109720009404002047050020480500206C05002017
:109730005823030010B5094B00211A461C788442B7
:1097400004D15C6814B102EB811010BD0131042911
:1097500003F14003F2D10020F7E700BF60120020C0
:109760002DE9F34150F8283C10F82C6C10330446D6
:1097700010D1036950F8202C99073CD502BB13F097
:10978000040304D11A461946304606F016FC00239D
:1097900044F8283C54F8283C10330ED054F8185C98
:1097A0005DB154F81C7C54F8148C07F042FC00287E
:1097B0004CD02E48214607F071FD02B0BDE8F08183
:1097C00050F8241C01AB304606F0F7FB10B16FF0E7
:1097D0001503DDE7019A54F8243C134444F8243C73
:1097E00054F8203C9B1A44F8203C54F81C3C134489
:1097F00044F81C3CCEE750F8241C01AB304601F085
:10980000E7FC0028E3D1019D54F8243C2B4444F8A4
:10981000243C54F8203C5B1B44F8203C54F81C3C8E
:109820002B4444F81C3C002DB1D0304601F074FDAF
:10983000B5FBF0F303FB1055002DA8D154F8203CE4
:10984000002BA4D0304601F00BFDA3E744F8180C20
:10985000A4F1100004F066FE54F8283C8C33ACD020
:10986000424639463046A847A7E700BF080A00200D
:109870004B1E012B73B506460D460FD8FFF75AFF56
:10988000044668B9012D09D101AB01220DF1030194
:10989000304601F09DFC019B002BF5D102B070BD5C
:1098A00007F0C7FB04F12C0108B1012D05D10846D2
:1098B00002B0BDE87040FFF753BF034802B0BDE8F7
:1098C000704007F0EBBC00BF080A00202DE9F74FFD
:1098D000064601911546984606F0B7FB0446002857
:1098E0005CD14FF02003EFF3118A83F31288BFF3AA
:1098F0006F8FDFF8B0B000220023584604F032FE2C
:1099000070B9DFF8A490A70109EB8414636813F120
:10991000100F14D10193584604F004FE019B06E099
:109920000134042C0BF1400BE5D16FF00B038AF3EB
:109930001188BFF36F8F184603B0BDE8F08F019B0D
:109940002061C4E902350C9B63610D9BA361304625
:109950006FF00F0309F80760C4F83C80636001F002
:10996000DBFC58B1304601F0D7FCB5FBF0F303FB4C
:1099700010551DB1E36B43F00403E36318F0020FCD
:1099800007D007F12C010948494407F087FC002360
:10999000CDE7304601F064FC0346C8E76FF00F03E3
:1099A000C9E700BF7C12002060120020080A0020D6
:1099B00010B54FF02003EFF3118483F31288BFF347
:1099C0006F8FFFF7B7FE50B14368103307D16FF0C8
:1099D0008B03436000F12C01034807F05FFC84F324
:1099E0001188BFF36F8F10BD080A002070B50F4CAF
:1099F00004254FF02003EFF3118683F31288BFF3A1
:109A00006F8F6368103307D16FF08B030848636072
:109A100004F12C0107F042FC86F31188BFF36F8F2D
:109A2000013D04F14004E4D170BD00BF601200208C
:109A3000080A002070B50A4C0A4E0025314620461F
:109A400007F00FFC0122A4F110001146013507F0C8
:109A50008AFB042D04F14004F0D1002070BD00BF4A
:109A60008C1200206197020070B504460E46017901
:109A70001248154606F0C5FAE8B194F9002063785B
:109A8000002A11DB202B04D0222B09D06FF0850097
:109A900005E029680722103806F02FFC002070BD71
:109AA000638800F8093CF9E7212BEFD11038072330
:109AB00028603360F2E76FF01200F0E760130020D7
:109AC00008B50146034806F0AAFA10B1012300F8D0
:109AD000073C08BD601300200169012381F82B3089
:109AE0000B6833B191F829301BB10248083107F0F7
:109AF000D5BB7047080A00200169012381F82A308C
:109B00000B6833B191F828301BB10248083107F0D7
:109B1000C5BB7047080A00200C4A03460021018596
:109B20001068586790889279A3F8780083F87A20B3
:109B300083F87C1083F87B10A3F87E1083F88010E4
:109B4000402203F12C0006F0E3BB00BF001B030022
:109B500038B5056995F87E0070B195F87F3063B926
:109B600085F82830286F06F0B3F905F1180104468E
:109B7000034807F093FB204638BD0020FCE700BFF8
:109B8000080A002013B504698DF8071094F87E3098
:109B90008BB194F87F3073B90DF10701206F84F811
:109BA0002830012206F094F9014630B10A4804F148
:109BB000180107F073FB02B010BD206F012206F000
:109BC000DBF90028F7D0206F01220DF1070106F024
:109BD0007FF90028EAD1EEE7080A0020F0B5C36E4D
:109BE0005B681B6A1F7D85B00546384606F02DFA76
:109BF0000646D8B9A86D4FF4806203A906F087F92C
:109C0000044698B18306A5F1180308BF00F1FF349C
:109C10002E740193064B0399009322460223384683
:109C2000FFF754FEA86D214606F091F905B0F0BD8E
:109C3000359C020010B5012382F8283013681446C1
:109C40003BB192F82A3023B1084802F1080107F02D
:109C500025FB236F9A681B699A4206D004F118010C
:109C60000248BDE8104007F019BB10BD080A0020EB
:109C700010B504690023C4F888300C4BC4F8840084
:109C8000596804F1880269B9C3E9002204F10800A7
:109C9000074907F0E6FA04F11800064907F0E1FA6F
:109CA000002010BD0A605A60F0E700BF601300207A
:109CB00075000300DD9B020073B5144602F12C060B
:109CC0000A1E05461DDDE06E314606F001F901234E
:109CD00084F8293023683BB194F82B3023B10E4827
:109CE00004F1080107F0DAFAE16E4B684A699A1A42
:109CF000CB699B1A3F2B04D8012384F8803002B033
:109D000070BD064B00930194012340223146284642
:109D1000FFF7DCFDF3E700BF080A0020B99C020052
:109D200038B50D460146244806F05FF9044680B375
:109D30000246691E52F884395B68052929D8DFE894
:109D400001F020280320252914F8061C31B91B6ACC
:109D5000187BFFF7B1FF012304F8063C14F85C3CC4
:109D6000BBB9012304F85C3C54F8843C8BB114F873
:109D70005A3C73B1A4F17C011048BDE8384007F0AB
:109D80008DBABDE838401046FFF7C6BE012304F87F
:109D9000053C38BD14F8051C0029FAD014F8060C4F
:109DA000002104F8051C0028F3D01B6A187BBDE8CD
:109DB0003840FFF781BF00BF60130020080A002071
:109DC00037B5094D0949002400944FF0FF334FF493
:109DD0008062284604F0EAFC0549284607F02FF97E
:109DE000204603B030BD00BF080A0020C023002079
:109DF000762303002DE9F84305464FF02003EFF3E7
:109E0000118683F31288BFF36F8F0E4B0E4F1C68C1
:109E1000DFF838804FF00C092CB986F31188BFF3B6
:109E20006F8FBDE8F883D4E90123002D18BF1346D6
:109E30002BB198F8142009FB02F2B85C984724680B
:109E4000EAE700BF80130020741300208C1F00205D
:109E500070B5194B1C7DBFF35B8F04F01F0301220B
:109E60009A40164B610903EB8103D04353E8001F6E
:109E700001EA000543E80056002EF7D1BFF35B8FDF
:109E80000A4213D00E4B0F4D8BB10C236343EA18DB
:109E9000E85C517806F054FA0020FFF7ABFF0C2382
:109EA0005C432A1900232B51C2E9013370BD83F3AF
:109EB0001188BFF36F8FEFE78C1F002088130020FD
:109EC00041030300741300202DE9F041354B074690
:109ED0001D7D4FF02003EFF3118883F31288BFF349
:109EE0006F8F0C24304B314E6C431A19195D0029C9
:109EF0004CD007CA06EB040C8CE8070000221A5568
:109F000088F31188BFF36F8F0C236B43F218F05C5A
:109F1000002839D07B1C10D0D2F808C0244C254A28
:109F20004FF400400021ECFB004100232046FDF7E8
:109F3000E7F80121381A07F0FDFA04F0E1FE0120EC
:109F4000FFF758FFBFF35B8F1B4B6A0903EB8203DC
:109F500005F01F0101228A4053E8000F104343E837
:109F600000010029F8D1BFF35B8F144B3BB10C23E8
:109F700003FB05F03318305C597806F0D5F9FFF78C
:109F800067FF04F0D1FE0120BDE8F08101462846BC
:109F900000F016F80028B3D007C8344484E807005E
:109FA000AEE700BF8C1F0020681300207413002050
:109FB0003F420F0040420F00881300202903030096
:109FC0002DE9F04F85B00E4603A900F043F81E4B73
:109FD000039DD3F800A0DFF87480431E1BB203EB8F
:109FE0004303044605EB83054FF400474FF0000B95
:109FF00024B9A146484605B0BDE8F08F6868144A08
:10A00000C4465946E0FB07C100236046FDF778F8D7
:10A010000190A8680E4AC4465946E0FB07C10023D8
:10A020006046FDF76DF8BAF1FF3FA94601D08245C1
:10A0300005D9731CDED0019B1844B042DAD9013C2B
:10A04000A4B20C3DD4E700BF080200203F420F003D
:10A0500040420F0008B9024B0B600020704700BF60
:10A060001C200300014910220A60704710ED00E037
:10A0700072B6404080F31188BFF36F8FBFF34F8FEC
:10A0800030BF62B6BFF36F8F704700BF72B64940F2
:10A0900081F3118820BF80F3118862B6704700BF3A
:10A0A00040B2002807DB044A4109012300F01F00E9
:10A0B000834042F82130704700E100E040B20028C0
:10A0C0000CDB4309064900F01F00203301228240C7
:10A0D00041F82320BFF34F8FBFF36F8F704700BF4E
:10A0E00000E100E0054B420900F01F0053F8222078
:10A0F000012303FA00F01040704700BF00E100E0C8
:10A1000040B20028A8BF00F1604001F10101B8BFD2
:10A11000064B4FEA4111ACBF00F5614000F00F0063
:10A12000C9B2B4BF195480F80013704714ED00E0B1
:10A1300030BFFFF7FDBF00BF0F4A08B50F4B22F03D
:10A140007F029A60BFF34F8FBFF36F8FD3F88820E1
:10A1500022F47002C3F88820EFF3148323F0040381
:10A1600083F31488BFF36F8F03F082FE04F018FFAF
:10A1700000F0D6F903F0C0FE0070020000ED00E030
:10A18000094A0A49936809689967094958674B68F9
:10A1900043F080534B60002383F31188BFF36F8F2C
:10A1A0009368986F704700BF8C1F0020C421030084
:10A1B00000ED00E012498A684FF030001044EFF3E0
:10A1C000098C80E8F01F202080F31288BFF36F8F86
:10A1D0000C4F4FF00066CA698A603E60506F0023E2
:10A1E000536780F3118804B5104600F0DFF9BDE82D
:10A1F000044002F1300090E8F01F8CF309887047AA
:10A200008C1F002004ED00E01EF0040F0CBFEFF3E4
:10A210000880EFF30980816911F8021C0229FFD040
:10A2200001B505F0B7FF01BD42F8203C009B42F8A4
:10A230001C3C0A49019B42F8183C029B42F8143C22
:10A2400021F001014FF0807342F8043C42F8081CF1
:10A250000023203A02654367704700BFCBFA020033
:10A26000094A0346906870B113F1160F406E05D08D
:10A27000A0F140029A4205D8834203D2814228BF0E
:10A2800000207047002070478C1F002008B5094B44
:10A290000D461446986000F089F9204685F3098838
:10A2A000002163B681F31188BFF36F8F0022002372
:10A2B00005F00BFC8C1F002001B572B60B4A9069AB
:10A2C00000281EBF0021916106F0BEFE62B6EFF3CA
:10A2D0000580A0F110004FEAC0000549014409C9FA
:10A2E0009847BDE801400349084700008C1F002043
:10A2F0001C190300F9A20200044B9968D86988422E
:10A3000003D003494FF080520A6070478C1F002031
:10A3100004ED00E070B51D4B15469A6A9A6A9A6A78
:10A320009207064622D5586B9A6A14061ED519B1B3
:10A330009A6A22F080029A629A6A9A6A9A6A134C1E
:10A3400012F0100F15D19B6A990712D40020A36A4E
:10A350000E4A9B0642BF636A23F400536362936A0A
:10A3600043F0FF03936200232B7070BD6FF0150064
:10A37000E2E763681A05E9D53146FFF771FF002867
:10A38000E4D080F309880220E1E700BF00ED00E09F
:10A390000D4B9A6A9A6A9A6A920508D59A6B9A6ADC
:10A3A000120404D518B19A6A22F400429A629A6A99
:10A3B0009A6AD205044A58BF9B6A936A002043F404
:10A3C0007F4393620870704700ED00E070B54A4B20
:10A3D0005B688AB00546C3F30803002686F311883C
:10A3E000BFF36F8F02F07F40B0F17F4F11D102F0C9
:10A3F0000C0008280DD010074CBF0D460126002286
:10A40000033B8DF80720032B4DD8DFE803F00465EC
:10A41000696D3546F3E7384BDA6A910743D4DA6A57
:10A42000002A40DBDA6A52003DD55A69A96942F434
:10A4300080725A61BFF34F8FBFF36F8F5A6931F843
:10A44000021C22F480725A61BFF34F8FBFF36F8FEB
:10A450004DF60272914209D09A6AD2B242B10DF120
:10A46000070201212846FFF755FF0AE02C681BE090
:10A470009A6A12F47F4F06D00DF107010120FFF711
:10A4800087FF044610E09A6AB2F5803F0BD39A6AC0
:10A490009A6A9A6A9A6A9A6A9A6A9A6A6FEA024207
:10A4A0006FEA12429A6200249DF8073093B9202285
:10A4B000294602A805F021FF099BBEB1C3F308029B
:10A4C00022B96FEA53236FEA4323099302A9204676
:10A4D00005F05EFE0AB070BD0DF107020021C1E774
:10A4E0000DF107010020CAE7034BD0E723F4FF7307
:10A4F00023F00103E9E700BF00ED00E0024A5369E1
:10A5000043F010035361704700ED00E0EFF3088063
:10A51000EFF3098101B57246FFF758FF01BD00BF97
:10A52000044800232021C2180133302B82F8001385
:10A53000F9D1704700E100E0FEF7DEFB202080F358
:10A54000118808484FF40461401880F30988EFF33C
:10A5500014800221084380F31488BFF36F8FFFF744
:10A56000EBFD0000402C0020084B9B6883420BD180
:10A57000EFF3058343B1064B5A6842F080525A60AC
:10A580005A6A22F400425A6204F098BC8C1F0020E0
:10A5900000ED00E0024B034A0348012100F070B8CF
:10A5A00000000420000000201C200300426E054B28
:10A5B000403A1A60044A4021C3E9011218460121B9
:10A5C00000F068B88C13002000000B15F0B5204E89
:10A5D00000258D4239DA446874B353B104F1FF3C6D
:10A5E00014EA0C0F2FD11F2C2DD907681CEA070F76
:10A5F00029D1202C0768D0F808C05FFA82FE1ED946
:10A60000B4F1004F1DD8013CB4FA84F4C4F11F0426
:10A610006400BEF1070F4CEA040C14D827F01F04A5
:10A62000144344F01004C6F89820C6F89C404CF03F
:10A630000104C6F8A040013201350C30C9E70824F6
:10A64000E7E73E24E5E76FF015021046F0BD00BFD6
:10A6500000ED00E0044B0522C3F89420BFF34F8FB8
:10A66000BFF36F8F704700BF00ED00E0BFF35F8F57
:10A67000024B0022C3F89420704700BF00ED00E0B9
:10A6800010B5034C01232278FFF7A0FF207010BD06
:10A690003220002008B5094A00231278FFF796FF00
:10A6A00010F1160F02D0064A072800DD08BDC2F8D7
:10A6B0009800C2F8A0300130F6E700BF3220002039
:10A6C00000ED00E014490868082810B521D8FFF70C
:10A6D000CDFF124C49680022904201F10C0105D1D6
:10A6E0000F4B1870FFF7B6FF002010BDC4F898207C
:10A6F00051F80C3C23F01F03134343F01003C4F83C
:10A700009C3051F8043C43F00103C4F8A0300132FE
:10A71000E2E74FF0FF30E8E72820030000ED00E01B
:10A7200032200020014B1860704700BF0C0200204F
:10A7300010B54FF02003EFF3118083F31288BFF3BD
:10A740006F8F114A0123C2F840354FF080424FF01D
:10A750008051C2F87835D1F83041082C08D1D1F8B1
:10A760003411052904D8094C615C09B1C2F83836A6
:10A770004FF080430122C3F8802580F31188BFF396
:10A780006F8F002010BD00BF00E001408E2303004A
:10A790004FF08043C0B2C3F81C05BFF34F8F05498B
:10A7A000054BCA6802F4E0621343CB60BFF34F8FDE
:10A7B00000BFFDE700ED00E00400FA0520B1034B07
:10A7C000800143F001031847704700BF101B0300CE
:10A7D000020600F07F0312D5082B05D1010700F017
:10A7E0000F0306D50E48704710F0780F12D100F015
:10A7F0000F034C2000EB43100A4B18447047082B02
:10A8000005D1020700F00F0306D50748704710F086
:10A81000780FF6D000207047044800EB43107047D3
:10A82000E4140020981300200416002004150020D2
:10A830000146014806F08CBC84040020014902480E
:10A8400006F02CBDC0130020A80A002013B50B4849
:10A8500002F016FA00240A4802F058FA4FF0FF33CB
:10A860004FF4806207490848009403F09FFF0749AE
:10A87000074806F0F6FC204602B010BD97230300FF
:10A880004820030000280020A80A0020A5AB0200F1
:10A89000C013002002480022002303F00FBE00BFB7
:10A8A0008404002010B5054CFFF7F4FF20B1011D12
:10A8B000204606F095FBF7E710BD00BF1804002006
:10A8C00007B500230E48002201A903F093FB90B1C5
:10A8D000FFF7E8FF0A480022002301A903F08AFBE2
:10A8E00038B90198042340600374FFF7A1FFFFF714
:10A8F000A5FF002001E00198406003B05DF804FB73
:10A9000018040020F8B5877806463846FFF760FF40
:10A910003B06F578044612D5002D43D1FFF7D0FF52
:10A92000034600283ED00122A57702740322027359
:10A930009C60FFF77DFFBDE8F840FFF77FBF4DB19A
:10A94000012D2FD1FFF7BCFF034658B3657705747F
:10A950000573EDE7FFF7B4FF20B3B278124B12F0A6
:10A96000800F02F0080111D041B1D3F8A836E3609E
:10A9700001230374022303738460DAE702F00F02F9
:10A98000142101FB0233D3F80836F0E711B1D3F8F4
:10A99000A837ECE702F00F02142101FB0233D3F8D1
:10A9A0000837E4E7F8BD00BF00700240022810B588
:10A9B00011D8094B1C5CFFF783FF60B100220274C1
:10A9C0000472FFF735FF054B93F824301BB1BDE847
:10A9D0001040FFF733BF10BD9423030098130020ED
:10A9E00010B50E49BFF35B8F002351E8002F012AF9
:10A9F00003D141E800300028F7D1BFF35B8F0CD1C1
:10AA000051F8044C1439204605F043F8783004D14D
:10AA10002046BDE8104005F017B810BDB81300205F
:10AA2000F0B5064689B01422002103A805F070FC99
:10AA30003378013B052B21D8DFE803F07A031414A7
:10AA40006A1603238DF814300024FFF739FF0346FC
:10AA5000A0B1047400F10802DDE9050182E80300F9
:10AA600018461DE00423EDE7B7783846FFF7B0FE3F
:10AA7000837A044623B1013B022B43D909B0F0BDD0
:10AA80003B06F57813D5002DF8D1FFF719FF0346E3
:10AA90000028F3D00122A5770274032202739C6080
:10AAA000FFF7C6FE09B0BDE8F040FFF7C7BE55B1DD
:10AAB000012DE3D1FFF704FF03460028DED06577C0
:10AAC00005740573EBE7FFF7FBFE07460028D5D0BA
:10AAD0000123037402230373846004F10C01B07832
:10AAE00006F034F8134AE168B2F88C328B4206D98A
:10AAF0005B1AA2F88C3202F05FFE3846D0E7A2F86B
:10AB00008C52FAE7304609B0BDE8F040FFF7FABED4
:10AB100001A802F02BFE9DF80530052B04D19DF80D
:10AB2000043013F0600FA9D0034B059301248CE788
:10AB300002248AE7981300200415002038B5002469
:10AB400064F07F00C0B2FFF743FE013405F0FEFB66
:10AB5000082CF5D10E4D0024E0B2FFF739FE036951
:10AB600003B90561013405F0F1FB082C05F140053E
:10AB7000F2D1084805F0EAFB074BD3F87C2212B962
:10AB8000064AC3F87C22064805F0E0FB002038BDE9
:10AB9000281A0020E4140020981300202816002012
:10ABA000041600202DE9F043A74CDFF8A08285B001
:10ABB0000746FFF76FFE10B905B0BDE8F08394F8C3
:10ABC0002530027C00F104093BB9002A00F088809E
:10ABD0009E48494606F004FAEBE7042A44D8DFE829
:10ABE00012F07F000500020118014101037B856816
:10ABF000032B39D8DFE803F0023F5C616E6908225D
:10AC00000021304605F084FB914B9248D3F8802414
:10AC10003270D3F884247270D3F88824D3F88C145B
:10AC200042EA01227280D3F89024D3F8941442EAC5
:10AC30000122B280D3F89824D3F89C3442EA03234B
:10AC40000822F3803146EA6005F057FB2B68687AEA
:10AC50000021984796F90030002B08DBF38833B1C8
:10AC6000A4F88C3202F0A8FD49464046B2E7002322
:10AC7000A4F88C32F8E76B7F002BF5D02B7F002BEC
:10AC8000F2D000266E774FF0FF3273482E774FF0E8
:10AC9000FF3305F06EFB6B6901936B68CDE90236FB
:10ACA00001A9687A02F08EFB6B4805F064FBDBE7D4
:10ACB0002B680121687A9847D6E7AB7A6BB9EB7FAE
:10ACC0005BB965484FF0FF324FF0FF3305F051FBA1
:10ACD00002F0A2FD604805F04EFB2B680221E9E777
:10ACE000027A042AC0D8DFE802F059032367730010
:10ACF00002F01CFB05460028B6D102F053FABFF360
:10AD00005B8F5649012351E8002F002A03D141E807
:10AD100000300028F7D1BFF35B8FA5D141F8085C64
:10AD200041F8105CE0696361143904F035FE9BE77B
:10AD3000002565F07F00C0B2FFF74AFD037A13B12A
:10AD4000407A02F04DFF0135082DF2D194F85431CC
:10AD50001BB194F8550102F043FF0025E8B2FFF75C
:10AD600037FD037A13B1407A02F03AFF0135082D1E
:10AD7000F4D194F874321BB194F8750202F030FFEC
:10AD8000012002F0B5FA012384F825302368002B56
:10AD90003FF46AAF00210220984765E7002584F858
:10ADA000255002F0ABFEFFF71BFE2368002B3FF49B
:10ADB0005BAF29460420EFE7002B3FF455AF02F0CC
:10ADC000B5FE2368002B3FF44FAF00210520E3E7D9
:10ADD0002268002A3FF448AF002B3FF445AF002122
:10ADE0000620904740E707F110054FF0FF334FF082
:10ADF000FF32284605F0BDFAFFF7A0FE284605F011
:10AE0000BAFA57F8283C002B3FF42EAF002101205E
:10AE1000C2E794F874327BB1012584F8895284F832
:10AE20008852FFF74DFD38B10D4A057405738260F5
:10AE3000FFF7FEFCFFF702FD57F8283C002B3FF41C
:10AE400013AF00210A20A7E7981300201804002060
:10AE5000007002409C130020D0130020B813002083
:10AE60000416002005F0E9FD02F048FE02F090F91A
:10AE7000FFF718FDFFF762FE05F0D8FD014802F06C
:10AE80005FFAF1E621AA020038B51A4D95F8244080
:10AE90005CBB05F1380006F0E6F8204600F03EFB0A
:10AEA0002246E86101212720FFF72AF9124802F023
:10AEB00047FA124B98421AD105F0B8FDFFF73EFE53
:10AEC000044610B9012385F824300D4B1B680BB1E3
:10AED000FFF7B4FC4FF08043D3F83834DB0702D5DA
:10AEE0000020FFF763FD204638BD0024FBE76FF02C
:10AEF0000404F8E79813002021AA02000000AD0B1B
:10AF000084040020074B93F824203AB193F82530AD
:10AF1000002B14BF00206FF0120070476FF012007A
:10AF2000704700BF9813002038B5104B93F82430B9
:10AF30000446C3B105782846FFF74AFC10B96FF004
:10AF4000150038BD45722379837263884360207889
:10AF5000618810F0080F02D14B1E0B42EFD105F0B3
:10AF6000F0FD0020EDE76FF01200EAE798130020F3
:10AF700038B5124B93F824200546CAB193F8253012
:10AF8000B3B1FFF725FC0446A8B1837A012B12D098
:10AF900007D9023B012B07D96369A3610020E06058
:10AFA00038BD02F041FCF7E7284602F0B1FBF3E7B9
:10AFB0006FF01200F4E76FF01500F1E7981300202E
:10AFC00038B50E4B93F82420054682B193F825300E
:10AFD0006BB1FFF7FDFB68B115F008040AD12846F4
:10AFE00002F0B8FB284602F04FFE204638BD6FF055
:10AFF0001200FBE76FF01500F8E700BF9813002080
:10B0000038B50C4B93F8242005460C4662B193F8F2
:10B0100025304BB1FFF7DCFB48B144B1284602F0C4
:10B020007FFB2070002038BD6FF01200FBE76FF04F
:10B030001500F8E79813002070B5134E96F82430E9
:10B040000446C3B1FFF7C4FB0546B8B1230705D4D6
:10B05000204602F07FFB204602F016FE2B7A83B9D1
:10B0600001232B7296F825300BB9002070BD2046C5
:10B0700002F0B6FDF9E76FF01200F7E76FF0150088
:10B08000F4E76FF07700F1E79813002038B5114B23
:10B0900093F8242004469AB193F8253083B1FFF742
:10B0A00097FB054678B1037A83B12046002402F06D
:10B0B0006BFD2846AC7705F049F92C72204638BD67
:10B0C0006FF01200FBE76FF01500F8E76FF0770004
:10B0D000F5E700BF981300202DE9F043DFF8E48086
:10B0E0001E4698F8243085B0074689461546002B41
:10B0F00061D098F82530002B5DD003065ED5FFF7B0
:10B1000067FB0446002859D0037A002B56D04FF035
:10B11000FF334FF0FF3208F1380005F02AF9A37F22
:10B120004BB108F1380005F026F96FF00A0420460B
:10B1300005B0BDE8F083A37AC5B13BB30123A37783
:10B140004FF0000801A93846CDE90195CDF80C80F3
:10B1500002F038F91C4B984229D084F81E801EBB9F
:10B160006FF00404194805F006F9E0E7E27F02B148
:10B17000E577002BE2D102F05FFBB842DED002F0AF
:10B180004BFB124805F0F7F80024D0E7B8F80A3076
:10B19000AB42F0D96268B5FBF2F302FB1353002B0C
:10B1A000E9D10123E377E6E7C6F80080D8E706B1E6
:10B1B00035600024D6E76FF01204B8E76FF015048D
:10B1C000B5E700BF981300200000AD0BD01300209E
:10B1D0002DE9F0411D46204B174693F824200E46DA
:10B1E000002A33D093F8253083B3030631D401B954
:10B1F0007FBBFFF7EDFA044658B3037A4BB34FF029
:10B20000FF3316484FF0FF3205F0B3F8E3689F4272
:10B21000B84628BF984646B93FB905B12B600F48DC
:10B2200005F0A9F80020BDE8F081A169424630464A
:10B2300005F063F8A3694344A361E368A3EB080343
:10B24000E360002DEBD0C5F80080E8E76FF0120056
:10B25000E9E76FF01500E6E798130020D01300200F
:10B2600070B51E4D95F82420034682B395F825202D
:10B270006AB31B062ED4FFF7ABFA044650B3037A29
:10B2800043B34FF0FF334FF0FF3205F1380005F0C4
:10B2900070F8E368B3B9012663692677A361637F19
:10B2A00083B1FFF70DFB30B905F1380005F063F805
:10B2B0006FF00B0070BD067484600673FFF7B8FA78
:10B2C000FFF7BCFA064805F056F80020F2E76FF0E9
:10B2D0001200EFE76FF01500ECE700BF98130020B5
:10B2E000D013002010B5084B93F824300C462BB136
:10B2F000FFF76EFA28B10460002010BD6FF0120055
:10B30000FBE76FF01500F8E798130020014B186079
:10B31000704700BF9813002008B5074B93F82430FE
:10B3200023B1FFF755FA20B1406808BD6FF0120055
:10B33000FBE76FF01500F8E798130020084B70B595
:10B34000C31A0D4607499B1004465943064840223C
:10B3500005F056F82B4601462046BDE870401847D8
:10B360003C1C0020B76DDBB6CC17030073B50C4C4A
:10B370000C4A4023041B00930D460B460A49A410B7
:10B3800061430646094805F068F8011E05DA3046B3
:10B390002B4602B0BDE87040184702B070BD00BF38
:10B3A0003C1C0020C7040300B76DDBB6CC170300BC
:10B3B000002270B5012104461046FEF7A1FE0F4899
:10B3C00001F0A0F80E4B984215D101F0ABF82669B8
:10B3D0000C49304604F0CDFA00280BDB012535641A
:10B3E0002469084904F11C0004F0C3FA002801DBB9
:10B3F000E564002070BD6FF00400FBE73DB402007F
:10B400000000AD0B4C20030070B501460C23094829
:10B410004B43C418D4E90E56403300221844A263AB
:10B4200004F0DBFF2DB132462B460348BDE87040E7
:10B43000184770BD3C1C0020CC17030010B1012838
:10B4400004D07047034B1B6C5B0701D1FFF7DCBFD7
:10B45000704700BF3C1C002008B54FF02003EFF3FD
:10B46000118183F31288BFF36F8F124A136843F080
:10B4700002001060DA0708D481F31188BFF36F8FE0
:10B480000120BDE8084005F02FBA4FF08043D3F803
:10B490000C24D3F80C34D307EED5074804F09DFFF5
:10B4A00081F31188BFF36F8F0020BDE80840FFF7DC
:10B4B000ABBF00BF8C1C00207C1C00201FB50022ED
:10B4C0000123CDE90223094ACDF800D06B46CDF81F
:10B4D00004D004F0F1FF002805DB4FF48042002384
:10B4E000684603F03FF805B05DF804FBE50403008F
:10B4F000094BBFF35B8F53E8002F22F0020143E8B2
:10B5000000100028F7D1BFF35B8FD30702D40120CE
:10B5100005F026BA704700BF8C1C0020024AC3B257
:10B520001C2003FB002070473C1C00202DE9F0414B
:10B530003849BFF35B8F0746012251E8003F41E8DD
:10B5400000200028F9D1BFF35B8F33B9324933486B
:10B550004B60CB608A6004F01FFA7B1E012B2BD856
:10B56000012F07D14FF08043D3F81C3403F00303BD
:10B57000012B21D005F05DFD0546F8B9284B1B785D
:10B58000E3B14FF080430222C3F808230646DFF8F8
:10B5900094804FF08044D4F81834D4F81824D2039F
:10B5A00016D503F00303012B01D0012F10D15DB399
:10B5B00086F31188BFF36F8FBDE8F0814FF0200351
:10B5C000EFF3118683F31288BFF36F8F0125DEE757
:10B5D000ADB13046FEF75AFDD4F81835002BDAD15C
:10B5E000D4F80421002AD6D0C4F80431D4F80431A8
:10B5F0000123C4F81835C8F88031A360CBE70021D7
:10B60000212003F03BFCE7E74FF080430222C3F820
:10B610000423D1E7381C0020281C0020581C0020DF
:10B620005B20002000E100E008B5074805F08DFC34
:10B6300038B10648FFF776F80448FDF703F8002014
:10B6400008BD6FF01200FBE71418030051B60200AA
:10B650000A2838B5074D044604D1AB680D215B6854
:10B6600028469847AB6803485B68E1B29847204694
:10B6700038BD00BF1418030030B54068057B01F0E9
:10B680001F04B2F5001F85B044EA451405D12046D9
:10B6900001F0CCF9002005B030BD0025B2F5800FD7
:10B6A000CDE9025514D1B3F1007F0CBF042305236B
:10B6B0008DF808300023194602AA204600F0F4FF56
:10B6C0001F4B984239D10121204601F067F9E1E78B
:10B6D000B3F1C06F26D0B3F1007F14BF0123022362
:10B6E0008DF808308368CB40D907E3D4B2F1A07F4E
:10B6F000E0D16209012A04F01F03124A03F5E07346
:10B7000018BF4FF0A04252F82330DB07D2D40DF11E
:10B7100007052946204601F0EDF80B4B984203D06F
:10B720000395C7E70323DBE7284601F031F9044B13
:10B730009842F5D06FF00B00ADE76FF01500AAE767
:10B740000000AD0B000300500400AD0B10B501F07C
:10B750000FF9044668B901F0E3F8084B98420AD1A2
:10B760000748214601F0C0F8224605210620FEF7D1
:10B77000C7FC002010BD6FF00400FBE70000AD0B1C
:10B7800085B70200420970B5034602D0012A17D0DE
:10B7900070BD0D4E326951680029F9D003F01F03C6
:10B7A00001250C689D400029F2D08A682A4002D009
:10B7B0004B68304698472CB1236821461C46F2E777
:10B7C000024EE7E72346F8E7FC170300E4170300FF
:10B7D0002DE9FF4147683B7B01F01F0545EA431512
:10B7E0000E4628460DF10301144601F083F814F4C7
:10B7F000403F80460BD1284601F040F93D4B98452B
:10B8000003D19DF8030001F0BDF800200CE00023F7
:10B81000194602AA2846CDE9023300F045FF354B10
:10B82000984204D06FF0150004B0BDE8F081804567
:10B8300003D19DF8030001F0A5F8A3034BD540F216
:10B8400006332340B3F5837F19D00CD8062B17D0CD
:10B8500004D8ABB1022BE5D1042311E0B3F5807F0E
:10B86000E0D101230CE040F20222934227D0B3F54D
:10B87000407F26D0B3F5007FD4D1022300E0072318
:10B880008DF8043084F48033C3F30043E0068DF870
:10B89000053054BFC4F34013032321038DF8063051
:10B8A00011D57A680123B340C2F80835002201A9F6
:10B8B000284600F0A7FF0F4B9842A6D0B2E7052319
:10B8C000DEE70323DCE7620341BF01237A68B3406C
:10B8D000C2F80C35EAE7E3064FF0000354BFC4F3A7
:10B8E000401403241A4601A928468DF8044000F0AC
:10B8F000DBFEE0E70000AD0BF0B54B79012B26D065
:10B90000032B21D110258B79032B1DD1CE790EB1BC
:10B91000012E19D10A7912B1022A15D10E220B6813
:10B920004468B3F5164F276867D02DD8B3F5165F76
:10B9300066D016D8B3F5966F64D00AD8B3F5967F63
:10B9400063D0B3F5167F63D06FF0850054E0002517
:10B95000D9E7B3F5166F5ED0B3F5965FF4D1384BE7
:10B960003CE0B3F5E14F59D007D8B3F5615F57D04C
:10B97000B3F5964FE8D1334B30E047F61224A3429B
:10B98000E2D14FF4000329E0B3F5613F4AD013D868
:10B99000B3F5963F49D009D84DF6C024A34246D00E
:10B9A000B3F5614FD0D14FF46B0317E0B3F5E13F2E
:10B9B000CAD14FF0EB7311E0B3F5612F3AD008D83C
:10B9C000214CA34239D0B3F5E12FBDD14FF0E8634C
:10B9D00004E01E4CA342B7D14FF080530469C7F86E
:10B9E0002435436835431B682A43C3F86C2503C9D3
:10B9F000231D83E803000020F0BD4FF41D03EDE795
:10BA0000134BEBE74FF49E23E8E74FF4A033E5E751
:10BA10004FF41C33E2E74FF41D23DFE70D4BDDE766
:10BA20000D4BDBE74FF06C73D8E70C4BD6E74FF4C8
:10BA30006503D3E74FF07063D0E74FF08063CDE745
:10BA400000B0130000A04E0090D0030040420F0051
:10BA50000050270000C0750000F03A0000903A0145
:10BA60002DE9F7438046002201210220FEF748FB22
:10BA70000220FEF715FBD8F80470D8F810603C6877
:10BA80000021C4F80015C6F80080D7F80C9001AA70
:10BA9000484604F010FF051E54DB019BD9F8002036
:10BAA0001979186800F0ECFA051E4BDB311D404691
:10BAB000FFF722FF0546002844D17B6899071AD575
:10BAC00006F11C0001F07CF9224B98423ED1337FF5
:10BAD000DB0003F1804303F5F83304F10C0204F5B5
:10BAE0009071C3F81015C3F81425327F01239340D9
:10BAF000194AC2F804350823C4F800353B7A53B913
:10BB0000C4F81031D4F81031B369C4F834350123C6
:10BB1000C4F8383523607B689A075CBF4FF48073A4
:10BB2000C4F804337B68DB0644BF4FF48003C4F8D9
:10BB300004337369C4F844350023C4F8483501233D
:10BB4000A360E360284603B0BDE8F0836FF004050E
:10BB5000F8E700BF0000AD0B00F00140F8B5044667
:10BB600007690D4605F065FAB0B9214B1B789BB10A
:10BB70006426606804F0F2FD00BB012004F0B2FE10
:10BB8000013EF6D10021212003F078F9F0E781F39E
:10BB90001188BFF36F8FF5E74FF02003EFF31181AA
:10BBA00083F31288BFF36F8F60680E4604F0D6FDF2
:10BBB00090B981F31188BFF36F8FEDE74FF0200349
:10BBC000EFF3118183F31288BFF36F8F60680E4625
:10BBD00004F0C4FD0028DAD07B691D707969012268
:10BBE000204604F0FBFC86F31188BFF36F8FF8BD8D
:10BBF0005B20002070B5012383400E4ABFF35B8FAA
:10BC0000DC4352E8001F01EA040542E80056002E1A
:10BC1000F7D1BFF35B8F4FF4803282400648C0F803
:10BC20000823BFF35F8FBFF36F8F0B4214BF012058
:10BC3000002070BDAC1C002000100140F8B51B496D
:10BC4000044622F07F450868C1E90023A5F50013EA
:10BC5000101AB3F5400F0FD303F088FAA30003F1D5
:10BC6000804303F58833D3F8402595421DD14FF426
:10BC70000002C3F8402512E00D4B1B681A0A1B0690
:10BC80005E190C4B42F10007C3E9006703F06EFA3E
:10BC9000094A04F5A87352F823309D4205D1064A9B
:10BCA0004FF48033A340C2F84433F8BD580B002052
:10BCB000B01C0020600B00200010014011B3BFF346
:10BCC0005B8F0123104A834052E800CF4CEA030CFB
:10BCD00042E800C10029F7D1BFF35B8F0B4A4FF454
:10BCE00080338340C2F80433094BBFF35B8F1B687A
:10BCF000BFF35B8FC340DB0742BF064B4FF40032FC
:10BD0000C3F80021704700BFAC1C002000100140A8
:10BD1000A81C002000E100E00D4B1868010A000695
:10BD2000BFF35F8F0B4BD3F80435181841F10001B6
:10BD3000B3F5801F0AD2084BD3E90023904271EB80
:10BD4000030303D210F1807041F10001704700BF7E
:10BD5000B01C002000100140600B00202DE9F74FBF
:10BD600014461D460746FFF745FF0090FFF7D4FF36
:10BD7000A04271EB05037AD2464B201A65EB010114
:10BD8000984271F1000180F08180434B03EB07136F
:10BD9000D3E902239D4208BF944253D04FEA870A59
:10BDA0000AF1804A07F150090AF5883A4FEA8909F1
:10BDB0001FFA89F924F07F4809F180494FF4803354
:10BDC000DAF84005354A09F58839BB404646D2F8CD
:10BDD00004B5A0EB0B0020F07F402BF07F41012841
:10BDE000CAF8401505D10193132005F0C5FB2B4A75
:10BDF000019B0BF1020CA6EB0C0020F07F40B0F58C
:10BE0000000F88BF66460020C9F80000D9F800007E
:10BE1000C2F8443326F07F40CAF84005D2F8040542
:10BE2000834506D0301A023820F07F40B0F5000F6D
:10BE30001BD8A6EB080626F07F46361945F100030D
:10BE400034461D4614490C983B0101EB0712C850BB
:10BE50000D9B5360C2E90245002438460099FFF764
:10BE60002DFF204603B0BDE8F08F3046AFE7012339
:10BE70000B4ABFF35B8FBB4052E8000F184342E808
:10BE800000010029F8D1BFF35B8FDBE76FF01504E9
:10BE9000E3E700BF01000001480B00200010014053
:10BEA000A81C002073B5194B194D00244FF0FF302A
:10BEB0004FF0FF31C5F80845C3E902014FF4803364
:10BEC000C5F80433134B02264FF400320121C5F8A4
:10BED00004631120C3F880212246FEF711F91120D6
:10BEE000FEF7DEF80C4A0123AB602B6013600B4BAE
:10BEF0000B4A0093019400232046FFF72FFF3046A2
:10BF0000FFF714FB204602B070BD00BF480B0020B5
:10BF10000010014000E100E0AC1C00203DBC02002C
:10BF2000FFFF7F002DE9F743334CD4F804339A0721
:10BF30000BD5D4F8043143B1304A0023C4F804319E
:10BF4000D4F804311368013313604FF02003EFF38A
:10BF5000118283F31288BFF36F8FD4F80433DB03AD
:10BF600029D5BFF35B8F264B53E8001F21F001005A
:10BF700043E80005002DF7D1BFF35B8F11B9D4F86A
:10BF80004031C3B10025C4F84051D4F8403182F3A8
:10BF90001188BFF36F8FFFF7BFFE4FF02003EFF361
:10BFA000118283F31288BFF36F8F164BD3E90267B8
:10BFB000B042B94106D282F31188BFF36F8F03B04C
:10BFC000BDE8F0834FF0FF384FF0FF39D3E90010A0
:10BFD000C3E902891D604FF48033C4F8483382F30B
:10BFE0001188BFF36F8F0029E9D0009032463B469D
:10BFF00028468847E3E700BF00100140B01C00203E
:10C00000A81C0020480B0020431C13B521D0012898
:10C0100021DDB0F5000F20DA441EFFF77DFE104B46
:10C02000D3E90013421AB2F5000F0E4828BF0024CE
:10C0300001322244824228BF024652184FF00000CB
:10C0400009490190009143F10003FFF787FE02B018
:10C0500010BD0448E0E70024DFE7024CDDE700BF45
:10C06000580B0020FFFF7F003DBC020008B5FFF722
:10C0700053FE024B1B68C01A08BD00BF580B0020BE
:10C080002DE9F0414D4E00EB81010127814202D1A3
:10C090000020BDE8F081056805F07F03C5F3432467
:10C0A0007F2B4FEA154508BF4FF0FF33192D00F2E3
:10C0B0008180DFE805F00D1F24272A3E277F7F7F40
:10C0C0007F426B7F7F7F7F7F7F7F7F7F6E76797CF4
:10C0D000C2F80C354FEA531CBCF1010F03F01F05E9
:10C0E00014BF4FF0A04CB44607FA05F5CCF808553C
:10C0F000012502E0C2F814350025AE4624E0C2F85E
:10C100000835E7E7C2F81035F6E7C2F8083500252C
:10C110004FEA531EBEF1010F14BF4FF0A04EB646BA
:10C1200003F01F0C07FA0CFCCEF80CC54FF0010E03
:10C130000AE0C2F80C350125EAE7C2F80835002C00
:10C14000DAD10025AE46062450F804CB0CF4005892
:10C15000B8F1000F4FEA0424CCF3C11803F01F0C10
:10C160004FEA53131CBF01254FF0000E44EA880428
:10C17000012B0CBF33464FF0A04344EA0E040CF5EC
:10C18000E07C44EA450443F82C407FE7C2F80C35D4
:10C19000D5E7C2F860350568C5F38035002DCAD0F3
:10C1A00098E7C2F86435F6E7C2F86835F3E7C2F8F5
:10C1B0006C35F0E76FF085006BE700BF00030050BF
:10C1C0004FF08053D3F83021082A06D1D3F8343108
:10C1D000052B02D8024AD05C70470020704700BF90
:10C1E000D7230300024AD2F80034002BFBD070475B
:10C1F00000E0014010B54FF08053D3F83021082AF9
:10C200004ED14FF080420021C2F80C11C2F810113B
:10C21000C2F8381502F54042D3F80414C2F82015CC
:10C22000D3F80814C2F82415D3F80C14C2F8281552
:10C23000D3F81014C2F82C15D3F81414C2F8301522
:10C24000D3F81814C2F83415D3F81C14C2F84015EA
:10C25000D3F82014C2F84415D3F82414C2F84815B2
:10C26000D3F82814C2F84C15D3F82C14C2F8501582
:10C27000D3F83014C2F85415D3F83414C2F860154A
:10C28000D3F83814C2F86415D3F83C14C2F8681512
:10C29000D3F84014C2F86C15D3F84434C2F87035A2
:10C2A000FFF78EFF18B13B4B3B4AC3F88C26FFF7D4
:10C2B00087FF18B1394BFB22C3F81825FFF780FF21
:10C2C00070B14FF080414FF08053D1F8E42ED3F895
:10C2D000583222F00F0203F00F031343C1F8E43E7B
:10C2E000FFF76EFF20B12E4B4FF40072C3F84026CB
:10C2F0004FF08053D3F83031082B1AD14FF08043E0
:10C30000D3F80024D20744BF6FF00102C3F8002421
:10C310004FF08053D3F83431052B02D8214AD35C37
:10C320003BB14FF01023D3F808224FF08043C3F8FD
:10C3300058254FF01023D3F80022002A03DBD3F84E
:10C340000432002B22DA184901234FF01020C1F8E3
:10C3500004351224FFF746FFC0F80042FFF742FF02
:10C36000C0F80442FFF73EFF0023C1F80435FFF791
:10C3700039FFBFF34F8F0D490D4BCA6802F4E062DD
:10C380001343CB60BFF34F8F00BFFDE7094B0A4A51
:10C390001A6010BD005000404881030000F00040CA
:10C3A00000900240D123030000E0014000ED00E0D6
:10C3B0000400FA05440200200090D00370B5012566
:10C3C0000268BFF35B8FB2FA82F3C3F11F03DBB2E3
:10C3D00005FA03F422EA040450E8006F964204D1FF
:10C3E00040E8004CBCF1000FF6D1BFF35B8FE7D102
:10C3F00001480B7070BD00BF0000AD0B10B50368A5
:10C40000CB40DB0714D401238B400268BFF35B8F62
:10C4100043EA020150E8004F944204D140E8001C76
:10C42000BCF1000FF6D1BFF35B8FEED1014810BD18
:10C430000148FCE70000AD0B0400AD0BF7B5044666
:10C4400018B1012822D003B0F0BD4FF08043022282
:10C45000C3F80823C3F80401D3F804210122DA60E9
:10C46000074601238DF8073042F210754FF08046E1
:10C47000CCB1012CE7D1C7B3D6F80C3403F00103DB
:10C480003B70D6F80C34DA0321D516E04FF0804328
:10C490000022C3F80803C3F80021D3F80021586034
:10C4A0000DF10707DDE7B7B1D6F8183403F0030341
:10C4B0003B60D6F81834D803C5D59DF8070001288D
:10C4C00003D104F00FFA013DD2D1012CBBD10C4BAA
:10C4D00000225A71B7E7D6F81834D903B3D5012032
:10C4E00004F000FA013DF6D1ADE7D6F80C34DB03D9
:10C4F000EDD5012004F0F6F9013DF6D1E7E700BFE4
:10C50000B41C0020044B1A7922B9012218609A80C9
:10C510000248704702487047B41C00200000AD0B71
:10C520000C00AD0B08B50020FDF7DCFD08B9FDF7E8
:10C53000B7FD4FF080430022C3F81825014B0122BC
:10C540001A7008BD5520002010B54FF08043D3F875
:10C5500000216AB10022C3F80021D3F80021012292
:10C56000C3F80823114B587910B95A711B689847C2
:10C570004FF08043D3F8042172B10022C3F80421A4
:10C58000D3F80421D3F81824D3F81814920704D14F
:10C590000122C3F818259A6010BD0222C3F80823AF
:10C5A000024BBDE810401B6801201847B41C002056
:10C5B000036803F01F025B09012B0260024818BFE9
:10C5C0004FF0A040704700BF00030050034B0830FD
:10C5D00033F81000C0F34010704700BF480200203D
:10C5E00070B500F108030C4C34F81330DA05054639
:10C5F0000E4607D5C3F3432304EBC30254F833308C
:10C6000052689847A3682BB1E26831462846BDE8D6
:10C610007040184770BD00BF4802002010B4124A95
:10C62000083032F81030D9051BD5C3F3432123F469
:10C63000F85322F8103002F10E04002034F8023FC3
:10C6400013F4807F03D0C3F34323994209D0013010
:10C650003028F3D1002342F83130044810BCFFF7F2
:10C66000CDBE10BC704700BF48020020BC020020B5
:10C6700038B50246FFF7AAFF094C02F1080540B1A0
:10C6800034F8153007495B0B03F5A273002041F81D
:10C6900023001046FFF7C2FF002324F8153038BDF1
:10C6A00048020020006000402DE9FF410446164684
:10C6B0001D4601B34E4F00F1080837F818309B07AC
:10C6C00002D5FFF783FF10BB0023CDE900338DF8BF
:10C6D0000E308DF80F300DF10F020B4620460DF194
:10C6E0000E0104F03FF937F8183023F0020343F04D
:10C6F000010327F8183046B33D4B96F800C0726826
:10C7000004F1080733F81710880702D5AAB1394891
:10C710001DE021F02001C904C90C23F8171062B1F3
:10C72000BCF1030FF3D872681678BCF1000F11D179
:10C73000314A06F5A27642F826C033F8172022F0D7
:10C740001C0242EA8C0223F8172045BB2B4804B098
:10C75000BDE8F081B20002F1804202F5C04241EA38
:10C760004631D2F8100520F00300C2F81005D2F8C7
:10C77000100520F44F3020F44070C2F8100520025C
:10C78000D2F810E500F47C5040EA0C4040EA0E007C
:10C7900041F0200123F81710C2F81005CDE7D5E9C4
:10C7A00000672046FFF73AFF002ECFD0104DD5E9A5
:10C7B0000023964201D19F4218D011480DF10F017C
:10C7C000FFF7FCFD0D4B9842C1D19DF80F2045F8B5
:10C7D000326005EBC20308345F6035F8143043EA79
:10C7E000422343F4807325F81430AFE70022EEE7CC
:10C7F000480200200400AD0B006000400000AD0BBB
:10C80000BC020020F0B5044685B0154619B3334E7E
:10C8100000F1080736F81720930703D4FFF7D6FE78
:10C82000002858D112F01C0F02D04B78012B52D0A7
:10C8300001238DF80F300023CDE900134A1C8B1C17
:10C8400020460DF10F0104F08DF836F8173043F053
:10C85000030326F8173015B9214805B0F0BD1F4E67
:10C8600004F1080736F81700830734D595F800C09F
:10C870006146890020F0200001F18041C00401F5EB
:10C88000C041C00C26F817000023C1F810356A78A3
:10C89000002AE1D0D1F81035AD7823F4991323F4B0
:10C8A000F853C1F81035D1F810E5230203F47C5396
:10C8B000120402F4403243EA0E0313432A0502F441
:10C8C000801240EA4C30134340F0200026F8170055
:10C8D000C1F81035C0E70348BFE700BF4802002099
:10C8E0000000AD0B0400AD0B014BC3E90201704722
:10C8F0004802002008B50246FFF768FE38B1054B34
:10C900000548083233F812305B0B0B7008BD034842
:10C91000FCE700BF480200200000AD0B0400AD0B97
:10C9200038B50F4C94F87850BDB96022294604F10F
:10C93000100003F0EDFC0620FDF7B2FB094B0A489E
:10C94000C3F87C51D3F87C214FF00042C3F8042394
:10C95000012384F87830636738BD0448FCE700BFE2
:10C9600048020020006000400000AD0B0500AD0B48
:10C97000034B93F87800003818BF0120704700BFC0
:10C980004802002001460148FFF738BDB8020020E8
:10C9900001460148FFF712BDB802002037B5044632
:10C9A000FFF714FE04F108021E4B33F81230E8B111
:10C9B00013F002051AD15B0B9A0002F1804000F5DA
:10C9C000C24002F1804202F5C04205600068D2F820
:10C9D000100540F00100C2F8100529B1012202FA49
:10C9E00003F3114AC2F8043303B030BDC3F382032A
:10C9F000042B12D0052B12D001A80194FFF7D8FD0B
:10CA0000019BD0F81015D94001F0010102312046F8
:10CA100003B0BDE8304003F0EEBF0321F7E7022189
:10CA2000F5E700BF480200200060004008B502465C
:10CA3000FFF7CCFDC0B102F108010E4B33F8113005
:10CA4000990711D45B0B01229A409B000A4903F11C
:10CA5000804303F5C043C1F80823D3F8102522F022
:10CA60000302C3F8102508BDBDE8084000211046A8
:10CA700003F0C1BF480200200060004013B50E4B18
:10CA800000F10802044633F81230DB0711D5FFF736
:10CA9000CDFF2046FFF7ECFD01A80194FFF788FDCC
:10CAA000019B03F5E073022240F82320034802B003
:10CAB00010BD0348FBE700BF480200200000AD0B9B
:10CAC0000400AD0B2DE9F04F684B69486949002619
:10CAD00087B0012234461D6835B1D0F804531542A1
